:1038000057C0EEC170C06FC06EC06DC06CC06BC0E1
:103810006AC069C068C067C066C065C064C063C074
:1038200062C061C060C05FC05EC05DC05CC05BC0A4
:103830005AC059C005010906A10105071954296399
:1038400015002501750195108102C00902220001B1
:103850000100800A090400000103000000092101A1
:103860000100012217000705810308000A12011058
:103870000100000008C016DF050001010200011A66
:103880000350005000500020007000630074006678
:1038900000320030003100330012036F0062006418
:1038A00000650076002E0061007400040309040026
:1038B00011241FBECFEFD4E0DEBFCDBF11E0A0E0EA
:1038C000B1E0E8E2FBE002C005900D92A430B10740
:1038D000D9F711E0A4E0B1E001C01D92AD33B1070A
:1038E000E1F79FD21FC58CCFFC01808180768032AA
:1038F000D1F48181823061F08A3091F0813099F485
:1039000085E091E0909322018093210182E0089567
:1039100080E091E0909322018093210181E008955D
:1039200083818093000180E00895CF93C62F20917A
:10393000120124FF07C02091130138E823272093A8
:10394000130103C02AE520931201DC01E4E1F1E058
:103950009C2F9E0F8D918193892F8E1B1816D4F367
:103960006C2F84E191E038D1CC5FC0931201CF91EC
:103970000895CF93DF9380912301835087FDA3C0E7
:103980009091200120911F012D3209F09AC08830BA
:1039900009F097C0CCE0D0E0C91BD109C95DDE4F6A
:1039A00083EC809307018AE5809301011092040162
:1039B0008881807619F0CE0197DF7AC09A811092C3
:1039C00010018981811106C01092110120E131E0BE
:1039D00082E06AC0853019F49093240162C0863079
:1039E00009F049C08B81813019F48DE690E01AC04E
:1039F000823041F48BE490E0909322018093210186
:103A000082E235C08330F1F4911108C08BEA90E076
:103A1000909322018093210184E029C0913041F4E8
:103A200089E990E0909322018093210182E11FC0F7
:103A30009230E1F48FE790E090932201809321018E
:103A40008AE115C0813241F48DE590E09093220126
:103A50008093210189E00BC0823241F484E390E03D
:103A6000909322018093210187E101C080E090E4DE
:103A7000909304011DC0883069F0893019F4909347
:103A800026010FC08A3049F08B3059F48BE48093C3
:103A9000130107C026E231E002C020E131E081E0FD
:103AA00003C020E131E080E0309322012093210126
:103AB0009F81911104C09E81981708F4892F8093EB
:103AC0000201109223018091010184FF46C0809180
:103AD00002018F3F09F441C0C82F893008F0C8E0C7
:103AE0008C1B809302018091070198E889278093BD
:103AF0000701CC2331F120912101309122018091E5
:103B0000040186FF0BC0F901A8E0B1E08C2F8A0FF9
:103B100094919D9331968A13FBCF09C0D901E8E0B7
:103B2000F1E08C2F8E0F9D9191938E13FCCF8C2FF3
:103B3000815090E00196820F931F90932201809311
:103B400021016C2F88E091E047D0CC5FCC3019F098
:103B50008FEF80930201C093010184E199B19570C8
:103B600031F48150D9F71092240110921E01DF9197
:103B7000CF910895E9E6F0E0808182608083E89A41
:103B80008BE4809313018AE5809312010895A82F96
:103B9000B92F8FEF9FEF1BC02D918227282F2295E1
:103BA0002827722F2695269527272395269521705D
:103BB000782F892F82272195207C922F2227769596
:103BC00027959727822776952795972782276150F3
:103BD00018F7809590950895DADF8D939D93089559
:103BE000CF93CFB7CF93DF93C395489BE9F7489B1B
:103BF0000BC0489B09C0489B07C0489B05C0489B19
:103C000003C0489B01C08BC06F93C0912001DD278A
:103C1000C95DDE4F2F9365E5489B03C02F916F91DF
:103C2000E6CF0F931F934F9320E040E15F9309B1DC
:103C3000057000FB27F93F9350E03BE039C0157059
:103C400040642F77012F5F5F1EC0406819B1157067
:103C50002F7752501FC0406409B12F770570D1F102
:103C60005F5F00C023C0406219B12F77157091F1DA
:103C70005F5F00C025C005701027515012F45D5FD2
:103C80000000115027952C3F19B1C8F61570012777
:103C9000015027952C3FC8F64227499309B105707A
:103CA00010274F73115027952C3FA8F6469546953F
:103CB00019B1157079F00127015027952C3F98F61E
:103CC0006B5A60F3315009B1B0F600C011E01CBB73
:103CD000002719C03B503195C31BD04011E01CBBDD
:103CE0000881033C09F10B34F9F020911E01198180
:103CF000110F1213EDCF4A81441F093651F10D32D5
:103D000011F0013E29F7009325013F915F914F91FA
:103D10001F910F912F916F91CCB3C0FD65CFDF91B3
:103D2000CF91CFBFCF91189520912501222369F320
:103D300010912301112391F5343092F13093230136
:103D400020931F01109120013BE0311B3093200193
:103D500027C00091230101300CF50AE54F7049F4AA
:103D60003091010134FD1DC000930101C7E0D1E095
:103D70001CC03091120134FD14C000931201C3E144
:103D8000D1E013C0052710E000C000000BB91AC035
:103D9000052710E0221F1DC010E021C04AE502C027
:103DA00032ED432FC4E1D0E032E01AB11560589AE9
:103DB0000BB11AB955E020E865E320FF05270BB9E0
:103DC000279517951C3FF0F66695B8F7B1F720FFD9
:103DD00005270BB9279517951C3FD0F62795179502
:103DE00017FF052700001C3F0BB9B0F629913A9543
:103DF00019F70A7F10912401110FC651D0400BB959
:103E000011F010931E0111E01CBB01601AB11A7F62
:103E1000402F4A7F54E05A95F1F70BB91AB94BB9C4
:103E200074CF2FEF89E698E1215080409040E1F770
:103E300000C000009FDE56985E982FEF81EE94E060
:103E4000215080409040E1F700C00000569A5E9AF1
:103E500078942FEF89E698E1215080409040E1F777
:103E600000C00000C0E0D0E001E010E0A89581DDD6
:103E70008FE19EE40197F1F700C00000C43592E1A4
:103E8000D90709F42FC208F010C1CA338BE0D80754
:103E900009F428C208F082C0CE3C28E0D20709F419
:103EA00021C2F0F5C33697E0D90709F41BC2E0F44C
:103EB000C83B86E0D80709F404C258F4C43426E0AD
:103EC000D20709F4FEC1C43B86E0D80709F020C23E
:103ED00009C2C83F96E0D90709F404C2C33227E0FB
:103EE000D20709F015C2EDC1CE3E87E0D80709F42C
:103EF000E8C158F4C53927E0D20709F4E2C1C53C4E
:103F000087E0D80709F004C2EDC1CE3198E0D907A7
:103F100009F4E8C1CE3528E0D20709F0F9C1D1C1D2
:103F2000CC318AE0D80709F4DDC1E0F4C13829E0DA
:103F3000D20709F4C6C158F4C43E98E0D90709F481
:103F4000C0C1C43129E0D20709F0E2C1CBC1C13CF4
:103F500089E0D80709F4C6C1CC3D99E0D90709F03A
:103F6000D7C1AFC1C33A2AE0D20709F4AAC158F4B5
:103F7000C4329AE0D90709F4A4C1C4352AE0D207B3
:103F800009F0C6C1AFC1C33D8AE0D80709F4AAC190
:103F9000CA309BE0D90709F0BBC193C1C0382EE0FD
:103FA000D20709F49FC1F0F5CE3D9CE0D90709F492
:103FB00099C1E0F4CE3F8BE0D80709F482C158F4F0
:103FC000C6352BE0D20709F47CC1C6398BE0D8078F
:103FD00009F09EC187C1CE329CE0D90709F482C1A5
:103FE000CE352CE0D20709F093C16BC1C43A8DE005
:103FF000D80709F466C158F4CE312DE0D20709F490
:1040000060C1CE378DE0D80709F082C16BC1C43ED4
:104010009DE0D90709F466C1C0342EE0D20709F04B
:1040200077C14FC1CE3680E1D80709F45BC1E0F417
:10403000CE362FE0D20709F444C158F4C63E9EE0C4
:10404000D90709F43EC1C6322FE0D20709F060C19A
:1040500049C1CE398FE0D80709F444C1CE3E9FE074
:10406000D90709F055C12DC1CE3421E1D20709F499
:1040700028C158F4CE3B90E1D90709F422C1CE3FC4
:1040800020E1D20709F044C12DC1C43E81E1D80727
:1040900009F417C1C23492E1D90709F412C1CE372D
:1040A00021E1D20709F034C11DC1CE3A88E1D80719
:1040B00009F418C108F087C0CA3325E1D20709F412
:1040C00000C1F0F5C53E93E1D90709F4FAC0E0F468
:1040D000CB3483E1D80709F405C158F4C23822E192
:1040E000D20709F4FFC0CB3E82E1D80709F010C126
:1040F000E8C0CF3693E1D90709F4E3C0CF3A23E112
:10410000D20709F005C1EEC0C93784E1D80709F428
:10411000E9C058F4C93324E1D20709F4D2C0C53448
:1041200084E1D80709F0F4C0DDC0C63C94E1D907AA
:1041300009F4C7C0C63325E1D20709F0E9C0D2C0EF
:10414000C53786E1D80709F4BCC0E0F4C13126E1E7
:10415000D20709F4B6C058F4CA3895E1D90709F472
:10416000C1C0C43925E1D20709F0D2C0AAC0C43108
:1041700086E1D80709F4B6C0C13796E1D90709F03E
:10418000C7C0B0C0CE3727E1D20709F4ABC058F49E
:10419000C53A96E1D90709F4A5C0CE3027E1D20788
:1041A00009F0B6C08EC0CE3288E1D80709F49AC0B3
:1041B000CE3598E1D90709F484C0CE3B27E1D20778
:1041C00009F0A6C07EC0CD368BE1D80709F48AC0BD
:1041D000F0F5C73D29E1D20709F484C0E0F4C0320C
:1041E00099E1D90709F46DC058F4C43B88E1D807B8
:1041F00009F467C0C43F98E1D90709F089C072C0CB
:10420000C03529E1D20709F46DC0C73989E1D80763
:1042100009F07EC056C0C33A9AE1D90709F451C0EB
:1042200058F4C4328AE1D80709F44BC0C4399AE182
:10423000D90709F06DC056C0C3322BE1D20709F48B
:1042400051C0CD338BE1D80709F062C03AC0CD3FF1
:104250009CE1D90709F446C0C8F4CD328CE1D807F7
:1042600081F150F4CD392BE1D20759F1CD3F8BE1EB
:10427000D80709F04DC036C0CD389CE1D90791F17F
:10428000CD3B2CE1D20709F043C01BC0C4388DE1FF
:10429000D807B9F048F4C4322DE1D20791F0C43503
:1042A0008DE1D807A9F51EC0C4309EE1D90749F0B9
:1042B000C4332EE1D207B1F0C43C8DE1D80741F5FB
:1042C00011C09E012F703327C80102C0880F991FAB
:1042D0002A95E2F79C018091050190910601822BBD
:1042E000932B12C09E012F703327C80102C0880F84
:1042F000991F2A95E2F79C01209530958091050140
:1043000013002CC106404C20FFFF90910601822330
:10431000932390930601809305018091120184FFFD
:1043200004C062E085E091E005DB2196A4CDF8941D
:00000001FF