Frame 1: 64 bytes on wire (512 bits), 64 bytes captured (512 bits)
    Arrival Time: Apr 17, 2013 11:34:50.870131000 MST
    Epoch Time: 1366223690.870131000 seconds
    [Time delta from previous captured frame: 0.000000000 seconds]
    [Time delta from previous displayed frame: 0.000000000 seconds]
    [Time since reference or first frame: 0.000000000 seconds]
    Frame Number: 1
    Frame Length: 64 bytes (512 bits)
    Capture Length: 64 bytes (512 bits)
    [Frame is marked: False]
    [Frame is ignored: False]
    [Protocols in frame: usb:usbhub]
USB URB

0000  80 30 df 7a 00 88 ff ff 53 02 80 01 02 00 00 3c   .0.z....S......<
0010  4a eb 6e 51 00 00 00 00 f3 46 0d 00 8d ff ff ff   J.nQ.....F......
0020  04 00 00 00 00 00 00 00 a3 00 00 00 01 00 04 00   ................
0030  00 00 00 00 00 00 00 00 00 02 00 00 00 00 00 00   ................

Frame 2: 68 bytes on wire (544 bits), 68 bytes captured (544 bits)
    Arrival Time: Apr 17, 2013 11:34:50.870148000 MST
    Epoch Time: 1366223690.870148000 seconds
    [Time delta from previous captured frame: 0.000017000 seconds]
    [Time delta from previous displayed frame: 0.000000000 seconds]
    [Time since reference or first frame: 0.000017000 seconds]
    Frame Number: 2
    Frame Length: 68 bytes (544 bits)
    Capture Length: 68 bytes (544 bits)
    [Frame is marked: False]
    [Frame is ignored: False]
    [Protocols in frame: usb:usbhub]
USB URB

0000  80 30 df 7a 00 88 ff ff 43 02 80 01 02 00 2d 00   .0.z....C.....-.
0010  4a eb 6e 51 00 00 00 00 04 47 0d 00 00 00 00 00   J.nQ.....G......
0020  04 00 00 00 04 00 00 00 00 00 00 00 00 00 00 00   ................
0030  00 00 00 00 00 00 00 00 00 02 00 00 00 00 00 00   ................
0040  00 01 00 00                                       ....

Frame 3: 64 bytes on wire (512 bits), 64 bytes captured (512 bits)
    Arrival Time: Apr 17, 2013 11:34:50.870154000 MST
    Epoch Time: 1366223690.870154000 seconds
    [Time delta from previous captured frame: 0.000006000 seconds]
    [Time delta from previous displayed frame: 0.000006000 seconds]
    [Time since reference or first frame: 0.000023000 seconds]
    Frame Number: 3
    Frame Length: 64 bytes (512 bits)
    Capture Length: 64 bytes (512 bits)
    [Frame is marked: False]
    [Frame is ignored: False]
    [Protocols in frame: usb:usbhub]
USB URB

0000  80 30 df 7a 00 88 ff ff 53 02 80 01 02 00 00 3c   .0.z....S......<
0010  4a eb 6e 51 00 00 00 00 0a 47 0d 00 8d ff ff ff   J.nQ.....G......
0020  04 00 00 00 00 00 00 00 a3 00 00 00 02 00 04 00   ................
0030  00 00 00 00 00 00 00 00 00 02 00 00 00 00 00 00   ................

Frame 4: 68 bytes on wire (544 bits), 68 bytes captured (544 bits)
    Arrival Time: Apr 17, 2013 11:34:50.870162000 MST
    Epoch Time: 1366223690.870162000 seconds
    [Time delta from previous captured frame: 0.000008000 seconds]
    [Time delta from previous displayed frame: 0.000014000 seconds]
    [Time since reference or first frame: 0.000031000 seconds]
    Frame Number: 4
    Frame Length: 68 bytes (544 bits)
    Capture Length: 68 bytes (544 bits)
    [Frame is marked: False]
    [Frame is ignored: False]
    [Protocols in frame: usb:usbhub]
USB URB

0000  80 30 df 7a 00 88 ff ff 43 02 80 01 02 00 2d 00   .0.z....C.....-.
0010  4a eb 6e 51 00 00 00 00 12 47 0d 00 00 00 00 00   J.nQ.....G......
0020  04 00 00 00 04 00 00 00 00 00 00 00 00 00 00 00   ................
0030  00 00 00 00 00 00 00 00 00 02 00 00 00 00 00 00   ................
0040  00 01 00 00                                       ....

Frame 5: 64 bytes on wire (512 bits), 64 bytes captured (512 bits)
    Arrival Time: Apr 17, 2013 11:34:50.870164000 MST
    Epoch Time: 1366223690.870164000 seconds
    [Time delta from previous captured frame: 0.000002000 seconds]
    [Time delta from previous displayed frame: 0.000002000 seconds]
    [Time since reference or first frame: 0.000033000 seconds]
    Frame Number: 5
    Frame Length: 64 bytes (512 bits)
    Capture Length: 64 bytes (512 bits)
    [Frame is marked: False]
    [Frame is ignored: False]
    [Protocols in frame: usb]
USB URB

0000  80 b6 c8 78 00 88 ff ff 53 01 81 01 02 00 2d 3c   ...x....S.....-<
0010  4a eb 6e 51 00 00 00 00 14 47 0d 00 8d ff ff ff   J.nQ.....G......
0020  02 00 00 00 00 00 00 00 00 00 00 00 00 00 00 00   ................
0030  80 00 00 00 00 00 00 00 00 02 00 00 00 00 00 00   ................

Frame 6: 64 bytes on wire (512 bits), 64 bytes captured (512 bits)
    Arrival Time: Apr 17, 2013 11:34:50.870264000 MST
    Epoch Time: 1366223690.870264000 seconds
    [Time delta from previous captured frame: 0.000100000 seconds]
    [Time delta from previous displayed frame: 0.000102000 seconds]
    [Time since reference or first frame: 0.000133000 seconds]
    Frame Number: 6
    Frame Length: 64 bytes (512 bits)
    Capture Length: 64 bytes (512 bits)
    [Frame is marked: False]
    [Frame is ignored: False]
    [Protocols in frame: usb]
USB URB

0000  80 30 df 7a 00 88 ff ff 53 02 80 01 02 00 00 3c   .0.z....S......<
0010  4a eb 6e 51 00 00 00 00 78 47 0d 00 8d ff ff ff   J.nQ....xG......
0020  28 00 00 00 00 00 00 00 80 06 00 01 00 00 28 00   (.............(.
0030  00 00 00 00 00 00 00 00 00 02 00 00 00 00 00 00   ................

Frame 7: 82 bytes on wire (656 bits), 82 bytes captured (656 bits)
    Arrival Time: Apr 17, 2013 11:34:50.870266000 MST
    Epoch Time: 1366223690.870266000 seconds
    [Time delta from previous captured frame: 0.000002000 seconds]
    [Time delta from previous displayed frame: 0.000104000 seconds]
    [Time since reference or first frame: 0.000135000 seconds]
    Frame Number: 7
    Frame Length: 82 bytes (656 bits)
    Capture Length: 82 bytes (656 bits)
    [Frame is marked: False]
    [Frame is ignored: False]
    [Protocols in frame: usb]
USB URB

0000  80 30 df 7a 00 88 ff ff 43 02 80 01 02 00 2d 00   .0.z....C.....-.
0010  4a eb 6e 51 00 00 00 00 7a 47 0d 00 00 00 00 00   J.nQ....zG......
0020  12 00 00 00 12 00 00 00 00 00 00 00 00 00 00 00   ................
0030  00 00 00 00 00 00 00 00 00 02 00 00 00 00 00 00   ................
0040  12 01 10 01 09 00 00 40 6b 1d 01 00 05 03 03 02   .......@k.......
0050  01 01                                             ..

Frame 8: 64 bytes on wire (512 bits), 64 bytes captured (512 bits)
    Arrival Time: Apr 17, 2013 11:34:52.871173000 MST
    Epoch Time: 1366223692.871173000 seconds
    [Time delta from previous captured frame: 2.000907000 seconds]
    [Time delta from previous displayed frame: 2.000907000 seconds]
    [Time since reference or first frame: 2.001042000 seconds]
    Frame Number: 8
    Frame Length: 64 bytes (512 bits)
    Capture Length: 64 bytes (512 bits)
    [Frame is marked: False]
    [Frame is ignored: False]
    [Protocols in frame: usb]
USB URB

0000  80 b6 c8 78 00 88 ff ff 43 01 81 01 02 00 2d 00   ...x....C.....-.
0010  4c eb 6e 51 00 00 00 00 05 4b 0d 00 fe ff ff ff   L.nQ.....K......
0020  00 00 00 00 00 00 00 00 00 00 00 00 00 00 00 00   ................
0030  80 00 00 00 00 00 00 00 00 02 00 00 00 00 00 00   ................

Frame 9: 64 bytes on wire (512 bits), 64 bytes captured (512 bits)
    Arrival Time: Apr 17, 2013 11:34:58.062256000 MST
    Epoch Time: 1366223698.062256000 seconds
    [Time delta from previous captured frame: 5.191083000 seconds]
    [Time delta from previous displayed frame: 5.191083000 seconds]
    [Time since reference or first frame: 7.192125000 seconds]
    Frame Number: 9
    Frame Length: 64 bytes (512 bits)
    Capture Length: 64 bytes (512 bits)
    [Frame is marked: False]
    [Frame is ignored: False]
    [Protocols in frame: usb:usbhub]
USB URB

0000  c0 38 c6 69 00 88 ff ff 53 02 80 01 02 00 00 3c   .8.i....S......<
0010  52 eb 6e 51 00 00 00 00 30 f3 00 00 8d ff ff ff   R.nQ....0.......
0020  04 00 00 00 00 00 00 00 a3 00 00 00 01 00 04 00   ................
0030  00 00 00 00 00 00 00 00 00 02 00 00 00 00 00 00   ................

Frame 10: 68 bytes on wire (544 bits), 68 bytes captured (544 bits)
    Arrival Time: Apr 17, 2013 11:34:58.062283000 MST
    Epoch Time: 1366223698.062283000 seconds
    [Time delta from previous captured frame: 0.000027000 seconds]
    [Time delta from previous displayed frame: 5.191110000 seconds]
    [Time since reference or first frame: 7.192152000 seconds]
    Frame Number: 10
    Frame Length: 68 bytes (544 bits)
    Capture Length: 68 bytes (544 bits)
    [Frame is marked: False]
    [Frame is ignored: False]
    [Protocols in frame: usb:usbhub]
USB URB

0000  c0 38 c6 69 00 88 ff ff 43 02 80 01 02 00 2d 00   .8.i....C.....-.
0010  52 eb 6e 51 00 00 00 00 4b f3 00 00 00 00 00 00   R.nQ....K.......
0020  04 00 00 00 04 00 00 00 00 00 00 00 00 00 00 00   ................
0030  00 00 00 00 00 00 00 00 00 02 00 00 00 00 00 00   ................
0040  01 01 01 00                                       ....

Frame 11: 64 bytes on wire (512 bits), 64 bytes captured (512 bits)
    Arrival Time: Apr 17, 2013 11:34:58.062286000 MST
    Epoch Time: 1366223698.062286000 seconds
    [Time delta from previous captured frame: 0.000003000 seconds]
    [Time delta from previous displayed frame: 0.000003000 seconds]
    [Time since reference or first frame: 7.192155000 seconds]
    Frame Number: 11
    Frame Length: 64 bytes (512 bits)
    Capture Length: 64 bytes (512 bits)
    [Frame is marked: False]
    [Frame is ignored: False]
    [Protocols in frame: usb:usbhub]
USB URB

0000  c0 38 c6 69 00 88 ff ff 53 02 00 01 02 00 00 00   .8.i....S.......
0010  52 eb 6e 51 00 00 00 00 4e f3 00 00 8d ff ff ff   R.nQ....N.......
0020  00 00 00 00 00 00 00 00 23 01 10 00 01 00 00 00   ........#.......
0030  00 00 00 00 00 00 00 00 00 00 00 00 00 00 00 00   ................

Frame 12: 64 bytes on wire (512 bits), 64 bytes captured (512 bits)
    Arrival Time: Apr 17, 2013 11:34:58.062289000 MST
    Epoch Time: 1366223698.062289000 seconds
    [Time delta from previous captured frame: 0.000003000 seconds]
    [Time delta from previous displayed frame: 0.000003000 seconds]
    [Time since reference or first frame: 7.192158000 seconds]
    Frame Number: 12
    Frame Length: 64 bytes (512 bits)
    Capture Length: 64 bytes (512 bits)
    [Frame is marked: False]
    [Frame is ignored: False]
    [Protocols in frame: usb:usbhub]
USB URB

0000  c0 38 c6 69 00 88 ff ff 43 02 00 01 02 00 2d 3e   .8.i....C.....->
0010  52 eb 6e 51 00 00 00 00 51 f3 00 00 00 00 00 00   R.nQ....Q.......
0020  00 00 00 00 00 00 00 00 00 00 00 00 00 00 00 00   ................
0030  00 00 00 00 00 00 00 00 00 00 00 00 00 00 00 00   ................

Frame 13: 64 bytes on wire (512 bits), 64 bytes captured (512 bits)
    Arrival Time: Apr 17, 2013 11:34:58.062290000 MST
    Epoch Time: 1366223698.062290000 seconds
    [Time delta from previous captured frame: 0.000001000 seconds]
    [Time delta from previous displayed frame: 0.000004000 seconds]
    [Time since reference or first frame: 7.192159000 seconds]
    Frame Number: 13
    Frame Length: 64 bytes (512 bits)
    Capture Length: 64 bytes (512 bits)
    [Frame is marked: False]
    [Frame is ignored: False]
    [Protocols in frame: usb:usbhub]
USB URB

0000  c0 38 c6 69 00 88 ff ff 53 02 80 01 02 00 00 3c   .8.i....S......<
0010  52 eb 6e 51 00 00 00 00 52 f3 00 00 8d ff ff ff   R.nQ....R.......
0020  04 00 00 00 00 00 00 00 a3 00 00 00 02 00 04 00   ................
0030  00 00 00 00 00 00 00 00 00 02 00 00 00 00 00 00   ................

Frame 14: 68 bytes on wire (544 bits), 68 bytes captured (544 bits)
    Arrival Time: Apr 17, 2013 11:34:58.062293000 MST
    Epoch Time: 1366223698.062293000 seconds
    [Time delta from previous captured frame: 0.000003000 seconds]
    [Time delta from previous displayed frame: 0.000007000 seconds]
    [Time since reference or first frame: 7.192162000 seconds]
    Frame Number: 14
    Frame Length: 68 bytes (544 bits)
    Capture Length: 68 bytes (544 bits)
    [Frame is marked: False]
    [Frame is ignored: False]
    [Protocols in frame: usb:usbhub]
USB URB

0000  c0 38 c6 69 00 88 ff ff 43 02 80 01 02 00 2d 00   .8.i....C.....-.
0010  52 eb 6e 51 00 00 00 00 55 f3 00 00 00 00 00 00   R.nQ....U.......
0020  04 00 00 00 04 00 00 00 00 00 00 00 00 00 00 00   ................
0030  00 00 00 00 00 00 00 00 00 02 00 00 00 00 00 00   ................
0040  00 01 00 00                                       ....

Frame 15: 64 bytes on wire (512 bits), 64 bytes captured (512 bits)
    Arrival Time: Apr 17, 2013 11:34:58.166616000 MST
    Epoch Time: 1366223698.166616000 seconds
    [Time delta from previous captured frame: 0.104323000 seconds]
    [Time delta from previous displayed frame: 0.104323000 seconds]
    [Time since reference or first frame: 7.296485000 seconds]
    Frame Number: 15
    Frame Length: 64 bytes (512 bits)
    Capture Length: 64 bytes (512 bits)
    [Frame is marked: False]
    [Frame is ignored: False]
    [Protocols in frame: usb]
USB URB

0000  80 b6 c8 78 00 88 ff ff 53 01 81 01 02 00 2d 3c   ...x....S.....-<
0010  52 eb 6e 51 00 00 00 00 d8 8a 02 00 8d ff ff ff   R.nQ............
0020  02 00 00 00 00 00 00 00 00 00 00 00 00 00 00 00   ................
0030  80 00 00 00 00 00 00 00 00 02 00 00 00 00 00 00   ................

Frame 16: 64 bytes on wire (512 bits), 64 bytes captured (512 bits)
    Arrival Time: Apr 17, 2013 11:34:58.166843000 MST
    Epoch Time: 1366223698.166843000 seconds
    [Time delta from previous captured frame: 0.000227000 seconds]
    [Time delta from previous displayed frame: 0.104550000 seconds]
    [Time since reference or first frame: 7.296712000 seconds]
    Frame Number: 16
    Frame Length: 64 bytes (512 bits)
    Capture Length: 64 bytes (512 bits)
    [Frame is marked: False]
    [Frame is ignored: False]
    [Protocols in frame: usb:usbhub]
USB URB

0000  40 bd 76 79 00 88 ff ff 53 02 80 01 02 00 00 3c   @.vy....S......<
0010  52 eb 6e 51 00 00 00 00 bb 8b 02 00 8d ff ff ff   R.nQ............
0020  04 00 00 00 00 00 00 00 a3 00 00 00 01 00 04 00   ................
0030  00 00 00 00 00 00 00 00 00 02 00 00 00 00 00 00   ................

Frame 17: 68 bytes on wire (544 bits), 68 bytes captured (544 bits)
    Arrival Time: Apr 17, 2013 11:34:58.166858000 MST
    Epoch Time: 1366223698.166858000 seconds
    [Time delta from previous captured frame: 0.000015000 seconds]
    [Time delta from previous displayed frame: 0.104565000 seconds]
    [Time since reference or first frame: 7.296727000 seconds]
    Frame Number: 17
    Frame Length: 68 bytes (544 bits)
    Capture Length: 68 bytes (544 bits)
    [Frame is marked: False]
    [Frame is ignored: False]
    [Protocols in frame: usb:usbhub]
USB URB

0000  40 bd 76 79 00 88 ff ff 43 02 80 01 02 00 2d 00   @.vy....C.....-.
0010  52 eb 6e 51 00 00 00 00 ca 8b 02 00 00 00 00 00   R.nQ............
0020  04 00 00 00 04 00 00 00 00 00 00 00 00 00 00 00   ................
0030  00 00 00 00 00 00 00 00 00 02 00 00 00 00 00 00   ................
0040  01 01 00 00                                       ....

Frame 18: 64 bytes on wire (512 bits), 64 bytes captured (512 bits)
    Arrival Time: Apr 17, 2013 11:34:58.166878000 MST
    Epoch Time: 1366223698.166878000 seconds
    [Time delta from previous captured frame: 0.000020000 seconds]
    [Time delta from previous displayed frame: 0.000020000 seconds]
    [Time since reference or first frame: 7.296747000 seconds]
    Frame Number: 18
    Frame Length: 64 bytes (512 bits)
    Capture Length: 64 bytes (512 bits)
    [Frame is marked: False]
    [Frame is ignored: False]
    [Protocols in frame: usb:usbhub]
USB URB

0000  40 bd 76 79 00 88 ff ff 53 02 00 01 02 00 00 00   @.vy....S.......
0010  52 eb 6e 51 00 00 00 00 de 8b 02 00 8d ff ff ff   R.nQ............
0020  00 00 00 00 00 00 00 00 23 03 04 00 01 00 00 00   ........#.......
0030  00 00 00 00 00 00 00 00 00 00 00 00 00 00 00 00   ................

Frame 19: 64 bytes on wire (512 bits), 64 bytes captured (512 bits)
    Arrival Time: Apr 17, 2013 11:34:58.166955000 MST
    Epoch Time: 1366223698.166955000 seconds
    [Time delta from previous captured frame: 0.000077000 seconds]
    [Time delta from previous displayed frame: 0.000077000 seconds]
    [Time since reference or first frame: 7.296824000 seconds]
    Frame Number: 19
    Frame Length: 64 bytes (512 bits)
    Capture Length: 64 bytes (512 bits)
    [Frame is marked: False]
    [Frame is ignored: False]
    [Protocols in frame: usb:usbhub]
USB URB

0000  40 bd 76 79 00 88 ff ff 43 02 00 01 02 00 2d 3e   @.vy....C.....->
0010  52 eb 6e 51 00 00 00 00 2b 8c 02 00 00 00 00 00   R.nQ....+.......
0020  00 00 00 00 00 00 00 00 00 00 00 00 00 00 00 00   ................
0030  00 00 00 00 00 00 00 00 00 00 00 00 00 00 00 00   ................

Frame 20: 64 bytes on wire (512 bits), 64 bytes captured (512 bits)
    Arrival Time: Apr 17, 2013 11:34:58.222311000 MST
    Epoch Time: 1366223698.222311000 seconds
    [Time delta from previous captured frame: 0.055356000 seconds]
    [Time delta from previous displayed frame: 0.055433000 seconds]
    [Time since reference or first frame: 7.352180000 seconds]
    Frame Number: 20
    Frame Length: 64 bytes (512 bits)
    Capture Length: 64 bytes (512 bits)
    [Frame is marked: False]
    [Frame is ignored: False]
    [Protocols in frame: usb:usbhub]
USB URB

0000  40 bd 76 79 00 88 ff ff 53 02 80 01 02 00 00 3c   @.vy....S......<
0010  52 eb 6e 51 00 00 00 00 67 64 03 00 8d ff ff ff   R.nQ....gd......
0020  04 00 00 00 00 00 00 00 a3 00 00 00 01 00 04 00   ................
0030  00 00 00 00 00 00 00 00 00 02 00 00 00 00 00 00   ................

Frame 21: 68 bytes on wire (544 bits), 68 bytes captured (544 bits)
    Arrival Time: Apr 17, 2013 11:34:58.222460000 MST
    Epoch Time: 1366223698.222460000 seconds
    [Time delta from previous captured frame: 0.000149000 seconds]
    [Time delta from previous displayed frame: 0.055582000 seconds]
    [Time since reference or first frame: 7.352329000 seconds]
    Frame Number: 21
    Frame Length: 68 bytes (544 bits)
    Capture Length: 68 bytes (544 bits)
    [Frame is marked: False]
    [Frame is ignored: False]
    [Protocols in frame: usb:usbhub]
USB URB

0000  40 bd 76 79 00 88 ff ff 43 02 80 01 02 00 2d 00   @.vy....C.....-.
0010  52 eb 6e 51 00 00 00 00 fc 64 03 00 00 00 00 00   R.nQ.....d......
0020  04 00 00 00 04 00 00 00 00 00 00 00 00 00 00 00   ................
0030  00 00 00 00 00 00 00 00 00 02 00 00 00 00 00 00   ................
0040  03 01 00 00                                       ....

Frame 22: 64 bytes on wire (512 bits), 64 bytes captured (512 bits)
    Arrival Time: Apr 17, 2013 11:34:58.279082000 MST
    Epoch Time: 1366223698.279082000 seconds
    [Time delta from previous captured frame: 0.056622000 seconds]
    [Time delta from previous displayed frame: 0.056622000 seconds]
    [Time since reference or first frame: 7.408951000 seconds]
    Frame Number: 22
    Frame Length: 64 bytes (512 bits)
    Capture Length: 64 bytes (512 bits)
    [Frame is marked: False]
    [Frame is ignored: False]
    [Protocols in frame: usb:usbhub]
USB URB

0000  40 bd 76 79 00 88 ff ff 53 02 00 01 02 00 00 00   @.vy....S.......
0010  52 eb 6e 51 00 00 00 00 2a 42 04 00 8d ff ff ff   R.nQ....*B......
0020  00 00 00 00 00 00 00 00 23 01 14 00 01 00 00 00   ........#.......
0030  00 00 00 00 00 00 00 00 00 00 00 00 00 00 00 00   ................

Frame 23: 64 bytes on wire (512 bits), 64 bytes captured (512 bits)
    Arrival Time: Apr 17, 2013 11:34:58.279139000 MST
    Epoch Time: 1366223698.279139000 seconds
    [Time delta from previous captured frame: 0.000057000 seconds]
    [Time delta from previous displayed frame: 0.000057000 seconds]
    [Time since reference or first frame: 7.409008000 seconds]
    Frame Number: 23
    Frame Length: 64 bytes (512 bits)
    Capture Length: 64 bytes (512 bits)
    [Frame is marked: False]
    [Frame is ignored: False]
    [Protocols in frame: usb:usbhub]
USB URB

0000  40 bd 76 79 00 88 ff ff 43 02 00 01 02 00 2d 3e   @.vy....C.....->
0010  52 eb 6e 51 00 00 00 00 63 42 04 00 00 00 00 00   R.nQ....cB......
0020  00 00 00 00 00 00 00 00 00 00 00 00 00 00 00 00   ................
0030  00 00 00 00 00 00 00 00 00 00 00 00 00 00 00 00   ................

Frame 24: 64 bytes on wire (512 bits), 64 bytes captured (512 bits)
    Arrival Time: Apr 17, 2013 11:34:58.279163000 MST
    Epoch Time: 1366223698.279163000 seconds
    [Time delta from previous captured frame: 0.000024000 seconds]
    [Time delta from previous displayed frame: 0.000081000 seconds]
    [Time since reference or first frame: 7.409032000 seconds]
    Frame Number: 24
    Frame Length: 64 bytes (512 bits)
    Capture Length: 64 bytes (512 bits)
    [Frame is marked: False]
    [Frame is ignored: False]
    [Protocols in frame: usb]
USB URB

0000  40 bd 76 79 00 88 ff ff 53 02 80 00 02 00 00 3c   @.vy....S......<
0010  52 eb 6e 51 00 00 00 00 7b 42 04 00 8d ff ff ff   R.nQ....{B......
0020  40 00 00 00 00 00 00 00 80 06 00 01 00 00 40 00   @.............@.
0030  00 00 00 00 00 00 00 00 00 02 00 00 00 00 00 00   ................

Frame 25: 82 bytes on wire (656 bits), 82 bytes captured (656 bits)
    Arrival Time: Apr 17, 2013 11:34:58.292563000 MST
    Epoch Time: 1366223698.292563000 seconds
    [Time delta from previous captured frame: 0.013400000 seconds]
    [Time delta from previous displayed frame: 0.013481000 seconds]
    [Time since reference or first frame: 7.422432000 seconds]
    Frame Number: 25
    Frame Length: 82 bytes (656 bits)
    Capture Length: 82 bytes (656 bits)
    [Frame is marked: False]
    [Frame is ignored: False]
    [Protocols in frame: usb]
USB URB

0000  40 bd 76 79 00 88 ff ff 43 02 80 00 02 00 2d 00   @.vy....C.....-.
0010  52 eb 6e 51 00 00 00 00 d3 76 04 00 00 00 00 00   R.nQ.....v......
0020  12 00 00 00 12 00 00 00 00 00 00 00 00 00 00 00   ................
0030  00 00 00 00 00 00 00 00 00 02 00 00 00 00 00 00   ................
0040  12 01 10 01 ff 00 00 10 eb 03 04 21 00 02 01 02   ...........!....
0050  03 01                                             ..

Frame 26: 64 bytes on wire (512 bits), 64 bytes captured (512 bits)
    Arrival Time: Apr 17, 2013 11:34:58.292762000 MST
    Epoch Time: 1366223698.292762000 seconds
    [Time delta from previous captured frame: 0.000199000 seconds]
    [Time delta from previous displayed frame: 0.000199000 seconds]
    [Time since reference or first frame: 7.422631000 seconds]
    Frame Number: 26
    Frame Length: 64 bytes (512 bits)
    Capture Length: 64 bytes (512 bits)
    [Frame is marked: False]
    [Frame is ignored: False]
    [Protocols in frame: usb:usbhub]
USB URB

0000  40 bd 76 79 00 88 ff ff 53 02 00 01 02 00 00 00   @.vy....S.......
0010  52 eb 6e 51 00 00 00 00 9a 77 04 00 8d ff ff ff   R.nQ.....w......
0020  00 00 00 00 00 00 00 00 23 03 04 00 01 00 00 00   ........#.......
0030  00 00 00 00 00 00 00 00 00 00 00 00 00 00 00 00   ................

Frame 27: 64 bytes on wire (512 bits), 64 bytes captured (512 bits)
    Arrival Time: Apr 17, 2013 11:34:58.292851000 MST
    Epoch Time: 1366223698.292851000 seconds
    [Time delta from previous captured frame: 0.000089000 seconds]
    [Time delta from previous displayed frame: 0.000089000 seconds]
    [Time since reference or first frame: 7.422720000 seconds]
    Frame Number: 27
    Frame Length: 64 bytes (512 bits)
    Capture Length: 64 bytes (512 bits)
    [Frame is marked: False]
    [Frame is ignored: False]
    [Protocols in frame: usb:usbhub]
USB URB

0000  40 bd 76 79 00 88 ff ff 43 02 00 01 02 00 2d 3e   @.vy....C.....->
0010  52 eb 6e 51 00 00 00 00 f3 77 04 00 00 00 00 00   R.nQ.....w......
0020  00 00 00 00 00 00 00 00 00 00 00 00 00 00 00 00   ................
0030  00 00 00 00 00 00 00 00 00 00 00 00 00 00 00 00   ................

Frame 28: 65 bytes on wire (520 bits), 65 bytes captured (520 bits)
    Arrival Time: Apr 17, 2013 11:34:58.307146000 MST
    Epoch Time: 1366223698.307146000 seconds
    [Time delta from previous captured frame: 0.014295000 seconds]
    [Time delta from previous displayed frame: 0.014384000 seconds]
    [Time since reference or first frame: 7.437015000 seconds]
    Frame Number: 28
    Frame Length: 65 bytes (520 bits)
    Capture Length: 65 bytes (520 bits)
    [Frame is marked: False]
    [Frame is ignored: False]
    [Protocols in frame: usb]
USB URB

0000  80 b6 c8 78 00 88 ff ff 43 01 81 01 02 00 2d 00   ...x....C.....-.
0010  52 eb 6e 51 00 00 00 00 ca af 04 00 00 00 00 00   R.nQ............
0020  01 00 00 00 01 00 00 00 00 00 00 00 00 00 00 00   ................
0030  80 00 00 00 00 00 00 00 00 02 00 00 00 00 00 00   ................
0040  02                                                .

Frame 29: 64 bytes on wire (512 bits), 64 bytes captured (512 bits)
    Arrival Time: Apr 17, 2013 11:34:58.307165000 MST
    Epoch Time: 1366223698.307165000 seconds
    [Time delta from previous captured frame: 0.000019000 seconds]
    [Time delta from previous displayed frame: 0.000019000 seconds]
    [Time since reference or first frame: 7.437034000 seconds]
    Frame Number: 29
    Frame Length: 64 bytes (512 bits)
    Capture Length: 64 bytes (512 bits)
    [Frame is marked: False]
    [Frame is ignored: False]
    [Protocols in frame: usb]
USB URB

0000  80 b6 c8 78 00 88 ff ff 53 01 81 01 02 00 2d 3c   ...x....S.....-<
0010  52 eb 6e 51 00 00 00 00 dd af 04 00 8d ff ff ff   R.nQ............
0020  02 00 00 00 00 00 00 00 00 00 00 00 00 00 00 00   ................
0030  80 00 00 00 00 00 00 00 00 02 00 00 00 00 00 00   ................

Frame 30: 64 bytes on wire (512 bits), 64 bytes captured (512 bits)
    Arrival Time: Apr 17, 2013 11:34:58.347056000 MST
    Epoch Time: 1366223698.347056000 seconds
    [Time delta from previous captured frame: 0.039891000 seconds]
    [Time delta from previous displayed frame: 0.039910000 seconds]
    [Time since reference or first frame: 7.476925000 seconds]
    Frame Number: 30
    Frame Length: 64 bytes (512 bits)
    Capture Length: 64 bytes (512 bits)
    [Frame is marked: False]
    [Frame is ignored: False]
    [Protocols in frame: usb:usbhub]
USB URB

0000  40 bd 76 79 00 88 ff ff 53 02 80 01 02 00 00 3c   @.vy....S......<
0010  52 eb 6e 51 00 00 00 00 b0 4b 05 00 8d ff ff ff   R.nQ.....K......
0020  04 00 00 00 00 00 00 00 a3 00 00 00 01 00 04 00   ................
0030  00 00 00 00 00 00 00 00 00 02 00 00 00 00 00 00   ................

Frame 31: 68 bytes on wire (544 bits), 68 bytes captured (544 bits)
    Arrival Time: Apr 17, 2013 11:34:58.347267000 MST
    Epoch Time: 1366223698.347267000 seconds
    [Time delta from previous captured frame: 0.000211000 seconds]
    [Time delta from previous displayed frame: 0.040121000 seconds]
    [Time since reference or first frame: 7.477136000 seconds]
    Frame Number: 31
    Frame Length: 68 bytes (544 bits)
    Capture Length: 68 bytes (544 bits)
    [Frame is marked: False]
    [Frame is ignored: False]
    [Protocols in frame: usb:usbhub]
USB URB

0000  40 bd 76 79 00 88 ff ff 43 02 80 01 02 00 2d 00   @.vy....C.....-.
0010  52 eb 6e 51 00 00 00 00 83 4c 05 00 00 00 00 00   R.nQ.....L......
0020  04 00 00 00 04 00 00 00 00 00 00 00 00 00 00 00   ................
0030  00 00 00 00 00 00 00 00 00 02 00 00 00 00 00 00   ................
0040  03 01 00 00                                       ....

Frame 32: 64 bytes on wire (512 bits), 64 bytes captured (512 bits)
    Arrival Time: Apr 17, 2013 11:34:58.402866000 MST
    Epoch Time: 1366223698.402866000 seconds
    [Time delta from previous captured frame: 0.055599000 seconds]
    [Time delta from previous displayed frame: 0.055599000 seconds]
    [Time since reference or first frame: 7.532735000 seconds]
    Frame Number: 32
    Frame Length: 64 bytes (512 bits)
    Capture Length: 64 bytes (512 bits)
    [Frame is marked: False]
    [Frame is ignored: False]
    [Protocols in frame: usb:usbhub]
USB URB

0000  40 bd 76 79 00 88 ff ff 53 02 00 01 02 00 00 00   @.vy....S.......
0010  52 eb 6e 51 00 00 00 00 b2 25 06 00 8d ff ff ff   R.nQ.....%......
0020  00 00 00 00 00 00 00 00 23 01 14 00 01 00 00 00   ........#.......
0030  00 00 00 00 00 00 00 00 00 00 00 00 00 00 00 00   ................

Frame 33: 64 bytes on wire (512 bits), 64 bytes captured (512 bits)
    Arrival Time: Apr 17, 2013 11:34:58.402908000 MST
    Epoch Time: 1366223698.402908000 seconds
    [Time delta from previous captured frame: 0.000042000 seconds]
    [Time delta from previous displayed frame: 0.000042000 seconds]
    [Time since reference or first frame: 7.532777000 seconds]
    Frame Number: 33
    Frame Length: 64 bytes (512 bits)
    Capture Length: 64 bytes (512 bits)
    [Frame is marked: False]
    [Frame is ignored: False]
    [Protocols in frame: usb:usbhub]
USB URB

0000  40 bd 76 79 00 88 ff ff 43 02 00 01 02 00 2d 3e   @.vy....C.....->
0010  52 eb 6e 51 00 00 00 00 dc 25 06 00 00 00 00 00   R.nQ.....%......
0020  00 00 00 00 00 00 00 00 00 00 00 00 00 00 00 00   ................
0030  00 00 00 00 00 00 00 00 00 00 00 00 00 00 00 00   ................

Frame 34: 64 bytes on wire (512 bits), 64 bytes captured (512 bits)
    Arrival Time: Apr 17, 2013 11:34:58.402912000 MST
    Epoch Time: 1366223698.402912000 seconds
    [Time delta from previous captured frame: 0.000004000 seconds]
    [Time delta from previous displayed frame: 0.000046000 seconds]
    [Time since reference or first frame: 7.532781000 seconds]
    Frame Number: 34
    Frame Length: 64 bytes (512 bits)
    Capture Length: 64 bytes (512 bits)
    [Frame is marked: False]
    [Frame is ignored: False]
    [Protocols in frame: usb]
USB URB

0000  40 bd 76 79 00 88 ff ff 53 02 00 00 02 00 00 00   @.vy....S.......
0010  52 eb 6e 51 00 00 00 00 e0 25 06 00 8d ff ff ff   R.nQ.....%......
0020  00 00 00 00 00 00 00 00 00 05 07 00 00 00 00 00   ................
0030  00 00 00 00 00 00 00 00 00 00 00 00 00 00 00 00   ................

Frame 35: 64 bytes on wire (512 bits), 64 bytes captured (512 bits)
    Arrival Time: Apr 17, 2013 11:34:58.410186000 MST
    Epoch Time: 1366223698.410186000 seconds
    [Time delta from previous captured frame: 0.007274000 seconds]
    [Time delta from previous displayed frame: 0.007274000 seconds]
    [Time since reference or first frame: 7.540055000 seconds]
    Frame Number: 35
    Frame Length: 64 bytes (512 bits)
    Capture Length: 64 bytes (512 bits)
    [Frame is marked: False]
    [Frame is ignored: False]
    [Protocols in frame: usb]
USB URB

0000  40 bd 76 79 00 88 ff ff 43 02 00 00 02 00 2d 3e   @.vy....C.....->
0010  52 eb 6e 51 00 00 00 00 4a 42 06 00 00 00 00 00   R.nQ....JB......
0020  00 00 00 00 00 00 00 00 00 00 00 00 00 00 00 00   ................
0030  00 00 00 00 00 00 00 00 00 00 00 00 00 00 00 00   ................

Frame 36: 64 bytes on wire (512 bits), 64 bytes captured (512 bits)
    Arrival Time: Apr 17, 2013 11:34:58.426349000 MST
    Epoch Time: 1366223698.426349000 seconds
    [Time delta from previous captured frame: 0.016163000 seconds]
    [Time delta from previous displayed frame: 0.023437000 seconds]
    [Time since reference or first frame: 7.556218000 seconds]
    Frame Number: 36
    Frame Length: 64 bytes (512 bits)
    Capture Length: 64 bytes (512 bits)
    [Frame is marked: False]
    [Frame is ignored: False]
    [Protocols in frame: usb]
USB URB

0000  c0 38 c6 69 00 88 ff ff 53 02 80 07 02 00 00 3c   .8.i....S......<
0010  52 eb 6e 51 00 00 00 00 6d 81 06 00 8d ff ff ff   R.nQ....m.......
0020  12 00 00 00 00 00 00 00 80 06 00 01 00 00 12 00   ................
0030  00 00 00 00 00 00 00 00 00 02 00 00 00 00 00 00   ................

Frame 37: 82 bytes on wire (656 bits), 82 bytes captured (656 bits)
    Arrival Time: Apr 17, 2013 11:34:58.427950000 MST
    Epoch Time: 1366223698.427950000 seconds
    [Time delta from previous captured frame: 0.001601000 seconds]
    [Time delta from previous displayed frame: 0.025038000 seconds]
    [Time since reference or first frame: 7.557819000 seconds]
    Frame Number: 37
    Frame Length: 82 bytes (656 bits)
    Capture Length: 82 bytes (656 bits)
    [Frame is marked: False]
    [Frame is ignored: False]
    [Protocols in frame: usb]
USB URB

0000  c0 38 c6 69 00 88 ff ff 43 02 80 07 02 00 2d 00   .8.i....C.....-.
0010  52 eb 6e 51 00 00 00 00 ae 87 06 00 00 00 00 00   R.nQ............
0020  12 00 00 00 12 00 00 00 00 00 00 00 00 00 00 00   ................
0030  00 00 00 00 00 00 00 00 00 02 00 00 00 00 00 00   ................
0040  12 01 10 01 ff 00 00 10 eb 03 04 21 00 02 01 02   ...........!....
0050  03 01                                             ..

Frame 38: 64 bytes on wire (512 bits), 64 bytes captured (512 bits)
    Arrival Time: Apr 17, 2013 11:34:58.428001000 MST
    Epoch Time: 1366223698.428001000 seconds
    [Time delta from previous captured frame: 0.000051000 seconds]
    [Time delta from previous displayed frame: 0.000051000 seconds]
    [Time since reference or first frame: 7.557870000 seconds]
    Frame Number: 38
    Frame Length: 64 bytes (512 bits)
    Capture Length: 64 bytes (512 bits)
    [Frame is marked: False]
    [Frame is ignored: False]
    [Protocols in frame: usb]
USB URB

0000  c0 20 df 7a 00 88 ff ff 53 02 80 07 02 00 00 3c   . .z....S......<
0010  52 eb 6e 51 00 00 00 00 e1 87 06 00 8d ff ff ff   R.nQ............
0020  09 00 00 00 00 00 00 00 80 06 00 02 00 00 09 00   ................
0030  00 00 00 00 00 00 00 00 00 02 00 00 00 00 00 00   ................

Frame 39: 73 bytes on wire (584 bits), 73 bytes captured (584 bits)
    Arrival Time: Apr 17, 2013 11:34:58.429451000 MST
    Epoch Time: 1366223698.429451000 seconds
    [Time delta from previous captured frame: 0.001450000 seconds]
    [Time delta from previous displayed frame: 0.001501000 seconds]
    [Time since reference or first frame: 7.559320000 seconds]
    Frame Number: 39
    Frame Length: 73 bytes (584 bits)
    Capture Length: 73 bytes (584 bits)
    [Frame is marked: False]
    [Frame is ignored: False]
    [Protocols in frame: usb]
USB URB

0000  c0 20 df 7a 00 88 ff ff 43 02 80 07 02 00 2d 00   . .z....C.....-.
0010  52 eb 6e 51 00 00 00 00 8b 8d 06 00 00 00 00 00   R.nQ............
0020  09 00 00 00 09 00 00 00 00 00 00 00 00 00 00 00   ................
0030  00 00 00 00 00 00 00 00 00 02 00 00 00 00 00 00   ................
0040  09 02 20 00 01 01 00 c0 32                        .. .....2

Frame 40: 64 bytes on wire (512 bits), 64 bytes captured (512 bits)
    Arrival Time: Apr 17, 2013 11:34:58.429495000 MST
    Epoch Time: 1366223698.429495000 seconds
    [Time delta from previous captured frame: 0.000044000 seconds]
    [Time delta from previous displayed frame: 0.000044000 seconds]
    [Time since reference or first frame: 7.559364000 seconds]
    Frame Number: 40
    Frame Length: 64 bytes (512 bits)
    Capture Length: 64 bytes (512 bits)
    [Frame is marked: False]
    [Frame is ignored: False]
    [Protocols in frame: usb]
USB URB

0000  c0 20 df 7a 00 88 ff ff 53 02 80 07 02 00 00 3c   . .z....S......<
0010  52 eb 6e 51 00 00 00 00 b7 8d 06 00 8d ff ff ff   R.nQ............
0020  20 00 00 00 00 00 00 00 80 06 00 02 00 00 20 00    ............. .
0030  00 00 00 00 00 00 00 00 00 02 00 00 00 00 00 00   ................

Frame 41: 96 bytes on wire (768 bits), 96 bytes captured (768 bits)
    Arrival Time: Apr 17, 2013 11:34:58.430940000 MST
    Epoch Time: 1366223698.430940000 seconds
    [Time delta from previous captured frame: 0.001445000 seconds]
    [Time delta from previous displayed frame: 0.001489000 seconds]
    [Time since reference or first frame: 7.560809000 seconds]
    Frame Number: 41
    Frame Length: 96 bytes (768 bits)
    Capture Length: 96 bytes (768 bits)
    [Frame is marked: False]
    [Frame is ignored: False]
    [Protocols in frame: usb]
USB URB

0000  c0 20 df 7a 00 88 ff ff 43 02 80 07 02 00 2d 00   . .z....C.....-.
0010  52 eb 6e 51 00 00 00 00 5c 93 06 00 00 00 00 00   R.nQ....\.......
0020  20 00 00 00 20 00 00 00 00 00 00 00 00 00 00 00    ... ...........
0030  00 00 00 00 00 00 00 00 00 02 00 00 00 00 00 00   ................
0040  09 02 20 00 01 01 00 c0 32 09 04 00 00 02 ff 00   .. .....2.......
0050  00 00 07 05 82 02 40 00 0a 07 05 02 02 40 00 0a   ......@......@..

Frame 42: 64 bytes on wire (512 bits), 64 bytes captured (512 bits)
    Arrival Time: Apr 17, 2013 11:34:58.430978000 MST
    Epoch Time: 1366223698.430978000 seconds
    [Time delta from previous captured frame: 0.000038000 seconds]
    [Time delta from previous displayed frame: 0.000038000 seconds]
    [Time since reference or first frame: 7.560847000 seconds]
    Frame Number: 42
    Frame Length: 64 bytes (512 bits)
    Capture Length: 64 bytes (512 bits)
    [Frame is marked: False]
    [Frame is ignored: False]
    [Protocols in frame: usb]
USB URB

0000  c0 20 df 7a 00 88 ff ff 53 02 80 07 02 00 00 3c   . .z....S......<
0010  52 eb 6e 51 00 00 00 00 82 93 06 00 8d ff ff ff   R.nQ............
0020  ff 00 00 00 00 00 00 00 80 06 00 03 00 00 ff 00   ................
0030  00 00 00 00 00 00 00 00 00 02 00 00 00 00 00 00   ................

Frame 43: 68 bytes on wire (544 bits), 68 bytes captured (544 bits)
    Arrival Time: Apr 17, 2013 11:34:58.433659000 MST
    Epoch Time: 1366223698.433659000 seconds
    [Time delta from previous captured frame: 0.002681000 seconds]
    [Time delta from previous displayed frame: 0.002719000 seconds]
    [Time since reference or first frame: 7.563528000 seconds]
    Frame Number: 43
    Frame Length: 68 bytes (544 bits)
    Capture Length: 68 bytes (544 bits)
    [Frame is marked: False]
    [Frame is ignored: False]
    [Protocols in frame: usb]
USB URB

0000  c0 20 df 7a 00 88 ff ff 43 02 80 07 02 00 2d 00   . .z....C.....-.
0010  52 eb 6e 51 00 00 00 00 fb 9d 06 00 00 00 00 00   R.nQ............
0020  04 00 00 00 04 00 00 00 00 00 00 00 00 00 00 00   ................
0030  00 00 00 00 00 00 00 00 00 02 00 00 00 00 00 00   ................
0040  04 03 09 04                                       ....

Frame 44: 64 bytes on wire (512 bits), 64 bytes captured (512 bits)
    Arrival Time: Apr 17, 2013 11:34:58.433760000 MST
    Epoch Time: 1366223698.433760000 seconds
    [Time delta from previous captured frame: 0.000101000 seconds]
    [Time delta from previous displayed frame: 0.000101000 seconds]
    [Time since reference or first frame: 7.563629000 seconds]
    Frame Number: 44
    Frame Length: 64 bytes (512 bits)
    Capture Length: 64 bytes (512 bits)
    [Frame is marked: False]
    [Frame is ignored: False]
    [Protocols in frame: usb]
USB URB

0000  c0 20 df 7a 00 88 ff ff 53 02 80 07 02 00 00 3c   . .z....S......<
0010  52 eb 6e 51 00 00 00 00 60 9e 06 00 8d ff ff ff   R.nQ....`.......
0020  ff 00 00 00 00 00 00 00 80 06 02 03 09 04 ff 00   ................
0030  00 00 00 00 00 00 00 00 00 02 00 00 00 00 00 00   ................

Frame 45: 88 bytes on wire (704 bits), 88 bytes captured (704 bits)
    Arrival Time: Apr 17, 2013 11:34:58.436529000 MST
    Epoch Time: 1366223698.436529000 seconds
    [Time delta from previous captured frame: 0.002769000 seconds]
    [Time delta from previous displayed frame: 0.002870000 seconds]
    [Time since reference or first frame: 7.566398000 seconds]
    Frame Number: 45
    Frame Length: 88 bytes (704 bits)
    Capture Length: 88 bytes (704 bits)
    [Frame is marked: False]
    [Frame is ignored: False]
    [Protocols in frame: usb]
USB URB

0000  c0 20 df 7a 00 88 ff ff 43 02 80 07 02 00 2d 00   . .z....C.....-.
0010  52 eb 6e 51 00 00 00 00 31 a9 06 00 00 00 00 00   R.nQ....1.......
0020  18 00 00 00 18 00 00 00 00 00 00 00 00 00 00 00   ................
0030  00 00 00 00 00 00 00 00 00 02 00 00 00 00 00 00   ................
0040  18 03 41 00 56 00 52 00 49 00 53 00 50 00 20 00   ..A.V.R.I.S.P. .
0050  6d 00 6b 00 49 00 49 00                           m.k.I.I.

Frame 46: 64 bytes on wire (512 bits), 64 bytes captured (512 bits)
    Arrival Time: Apr 17, 2013 11:34:58.436616000 MST
    Epoch Time: 1366223698.436616000 seconds
    [Time delta from previous captured frame: 0.000087000 seconds]
    [Time delta from previous displayed frame: 0.000087000 seconds]
    [Time since reference or first frame: 7.566485000 seconds]
    Frame Number: 46
    Frame Length: 64 bytes (512 bits)
    Capture Length: 64 bytes (512 bits)
    [Frame is marked: False]
    [Frame is ignored: False]
    [Protocols in frame: usb]
USB URB

0000  c0 20 df 7a 00 88 ff ff 53 02 80 07 02 00 00 3c   . .z....S......<
0010  52 eb 6e 51 00 00 00 00 88 a9 06 00 8d ff ff ff   R.nQ............
0020  ff 00 00 00 00 00 00 00 80 06 01 03 09 04 ff 00   ................
0030  00 00 00 00 00 00 00 00 00 02 00 00 00 00 00 00   ................

Frame 47: 76 bytes on wire (608 bits), 76 bytes captured (608 bits)
    Arrival Time: Apr 17, 2013 11:34:58.439384000 MST
    Epoch Time: 1366223698.439384000 seconds
    [Time delta from previous captured frame: 0.002768000 seconds]
    [Time delta from previous displayed frame: 0.002855000 seconds]
    [Time since reference or first frame: 7.569253000 seconds]
    Frame Number: 47
    Frame Length: 76 bytes (608 bits)
    Capture Length: 76 bytes (608 bits)
    [Frame is marked: False]
    [Frame is ignored: False]
    [Protocols in frame: usb]
USB URB

0000  c0 20 df 7a 00 88 ff ff 43 02 80 07 02 00 2d 00   . .z....C.....-.
0010  52 eb 6e 51 00 00 00 00 58 b4 06 00 00 00 00 00   R.nQ....X.......
0020  0c 00 00 00 0c 00 00 00 00 00 00 00 00 00 00 00   ................
0030  00 00 00 00 00 00 00 00 00 02 00 00 00 00 00 00   ................
0040  0c 03 41 00 54 00 4d 00 45 00 4c 00               ..A.T.M.E.L.

Frame 48: 64 bytes on wire (512 bits), 64 bytes captured (512 bits)
    Arrival Time: Apr 17, 2013 11:34:58.439461000 MST
    Epoch Time: 1366223698.439461000 seconds
    [Time delta from previous captured frame: 0.000077000 seconds]
    [Time delta from previous displayed frame: 0.000077000 seconds]
    [Time since reference or first frame: 7.569330000 seconds]
    Frame Number: 48
    Frame Length: 64 bytes (512 bits)
    Capture Length: 64 bytes (512 bits)
    [Frame is marked: False]
    [Frame is ignored: False]
    [Protocols in frame: usb]
USB URB

0000  c0 20 df 7a 00 88 ff ff 53 02 80 07 02 00 00 3c   . .z....S......<
0010  52 eb 6e 51 00 00 00 00 a5 b4 06 00 8d ff ff ff   R.nQ............
0020  ff 00 00 00 00 00 00 00 80 06 03 03 09 04 ff 00   ................
0030  00 00 00 00 00 00 00 00 00 02 00 00 00 00 00 00   ................

Frame 49: 92 bytes on wire (736 bits), 92 bytes captured (736 bits)
    Arrival Time: Apr 17, 2013 11:34:58.442297000 MST
    Epoch Time: 1366223698.442297000 seconds
    [Time delta from previous captured frame: 0.002836000 seconds]
    [Time delta from previous displayed frame: 0.002913000 seconds]
    [Time since reference or first frame: 7.572166000 seconds]
    Frame Number: 49
    Frame Length: 92 bytes (736 bits)
    Capture Length: 92 bytes (736 bits)
    [Frame is marked: False]
    [Frame is ignored: False]
    [Protocols in frame: usb]
USB URB

0000  c0 20 df 7a 00 88 ff ff 43 02 80 07 02 00 2d 00   . .z....C.....-.
0010  52 eb 6e 51 00 00 00 00 b9 bf 06 00 00 00 00 00   R.nQ............
0020  1c 00 00 00 1c 00 00 00 00 00 00 00 00 00 00 00   ................
0030  00 00 00 00 00 00 00 00 00 02 00 00 00 00 00 00   ................
0040  1c 03 30 00 30 00 30 00 32 00 30 00 30 00 30 00   ..0.0.0.2.0.0.0.
0050  37 00 38 00 35 00 39 00 36 00 00 00               7.8.5.9.6...

Frame 50: 64 bytes on wire (512 bits), 64 bytes captured (512 bits)
    Arrival Time: Apr 17, 2013 11:34:58.442625000 MST
    Epoch Time: 1366223698.442625000 seconds
    [Time delta from previous captured frame: 0.000328000 seconds]
    [Time delta from previous displayed frame: 0.000328000 seconds]
    [Time since reference or first frame: 7.572494000 seconds]
    Frame Number: 50
    Frame Length: 64 bytes (512 bits)
    Capture Length: 64 bytes (512 bits)
    [Frame is marked: False]
    [Frame is ignored: False]
    [Protocols in frame: usb]
USB URB

0000  80 33 df 7a 00 88 ff ff 53 02 00 07 02 00 00 00   .3.z....S.......
0010  52 eb 6e 51 00 00 00 00 01 c1 06 00 8d ff ff ff   R.nQ............
0020  00 00 00 00 00 00 00 00 00 09 01 00 00 00 00 00   ................
0030  00 00 00 00 00 00 00 00 00 00 00 00 00 00 00 00   ................

Frame 51: 64 bytes on wire (512 bits), 64 bytes captured (512 bits)
    Arrival Time: Apr 17, 2013 11:34:58.461918000 MST
    Epoch Time: 1366223698.461918000 seconds
    [Time delta from previous captured frame: 0.019293000 seconds]
    [Time delta from previous displayed frame: 0.019293000 seconds]
    [Time since reference or first frame: 7.591787000 seconds]
    Frame Number: 51
    Frame Length: 64 bytes (512 bits)
    Capture Length: 64 bytes (512 bits)
    [Frame is marked: False]
    [Frame is ignored: False]
    [Protocols in frame: usb]
USB URB

0000  80 33 df 7a 00 88 ff ff 43 02 00 07 02 00 2d 3e   .3.z....C.....->
0010  52 eb 6e 51 00 00 00 00 5e 0c 07 00 00 00 00 00   R.nQ....^.......
0020  00 00 00 00 00 00 00 00 00 00 00 00 00 00 00 00   ................
0030  00 00 00 00 00 00 00 00 00 00 00 00 00 00 00 00   ................

Frame 52: 64 bytes on wire (512 bits), 64 bytes captured (512 bits)
    Arrival Time: Apr 17, 2013 11:34:58.462153000 MST
    Epoch Time: 1366223698.462153000 seconds
    [Time delta from previous captured frame: 0.000235000 seconds]
    [Time delta from previous displayed frame: 0.019528000 seconds]
    [Time since reference or first frame: 7.592022000 seconds]
    Frame Number: 52
    Frame Length: 64 bytes (512 bits)
    Capture Length: 64 bytes (512 bits)
    [Frame is marked: False]
    [Frame is ignored: False]
    [Protocols in frame: usb:usbhub]
USB URB

0000  c0 32 df 7a 00 88 ff ff 53 02 80 01 02 00 00 3c   .2.z....S......<
0010  52 eb 6e 51 00 00 00 00 49 0d 07 00 8d ff ff ff   R.nQ....I.......
0020  04 00 00 00 00 00 00 00 a3 00 00 00 01 00 04 00   ................
0030  00 00 00 00 00 00 00 00 00 02 00 00 00 00 00 00   ................

Frame 53: 68 bytes on wire (544 bits), 68 bytes captured (544 bits)
    Arrival Time: Apr 17, 2013 11:34:58.462160000 MST
    Epoch Time: 1366223698.462160000 seconds
    [Time delta from previous captured frame: 0.000007000 seconds]
    [Time delta from previous displayed frame: 0.019535000 seconds]
    [Time since reference or first frame: 7.592029000 seconds]
    Frame Number: 53
    Frame Length: 68 bytes (544 bits)
    Capture Length: 68 bytes (544 bits)
    [Frame is marked: False]
    [Frame is ignored: False]
    [Protocols in frame: usb:usbhub]
USB URB

0000  c0 32 df 7a 00 88 ff ff 43 02 80 01 02 00 2d 00   .2.z....C.....-.
0010  52 eb 6e 51 00 00 00 00 50 0d 07 00 00 00 00 00   R.nQ....P.......
0020  04 00 00 00 04 00 00 00 00 00 00 00 00 00 00 00   ................
0030  00 00 00 00 00 00 00 00 00 02 00 00 00 00 00 00   ................
0040  03 01 00 00                                       ....

Frame 54: 64 bytes on wire (512 bits), 64 bytes captured (512 bits)
    Arrival Time: Apr 17, 2013 11:35:07.239438000 MST
    Epoch Time: 1366223707.239438000 seconds
    [Time delta from previous captured frame: 8.777278000 seconds]
    [Time delta from previous displayed frame: 8.777278000 seconds]
    [Time since reference or first frame: 16.369307000 seconds]
    Frame Number: 54
    Frame Length: 64 bytes (512 bits)
    Capture Length: 64 bytes (512 bits)
    [Frame is marked: False]
    [Frame is ignored: False]
    [Protocols in frame: usb]
USB URB

0000  c0 89 ca 36 00 88 ff ff 53 02 80 07 02 00 00 3c   ...6....S......<
0010  5b eb 6e 51 00 00 00 00 4e a7 03 00 8d ff ff ff   [.nQ....N.......
0020  ff 00 00 00 00 00 00 00 80 06 00 03 00 00 ff 00   ................
0030  00 00 00 00 00 00 00 00 00 02 00 00 00 00 00 00   ................

Frame 55: 68 bytes on wire (544 bits), 68 bytes captured (544 bits)
    Arrival Time: Apr 17, 2013 11:35:07.241747000 MST
    Epoch Time: 1366223707.241747000 seconds
    [Time delta from previous captured frame: 0.002309000 seconds]
    [Time delta from previous displayed frame: 8.779587000 seconds]
    [Time since reference or first frame: 16.371616000 seconds]
    Frame Number: 55
    Frame Length: 68 bytes (544 bits)
    Capture Length: 68 bytes (544 bits)
    [Frame is marked: False]
    [Frame is ignored: False]
    [Protocols in frame: usb]
USB URB

0000  c0 89 ca 36 00 88 ff ff 43 02 80 07 02 00 2d 00   ...6....C.....-.
0010  5b eb 6e 51 00 00 00 00 53 b0 03 00 00 00 00 00   [.nQ....S.......
0020  04 00 00 00 04 00 00 00 00 00 00 00 00 00 00 00   ................
0030  00 00 00 00 00 00 00 00 00 02 00 00 00 00 00 00   ................
0040  04 03 09 04                                       ....

Frame 56: 64 bytes on wire (512 bits), 64 bytes captured (512 bits)
    Arrival Time: Apr 17, 2013 11:35:07.241963000 MST
    Epoch Time: 1366223707.241963000 seconds
    [Time delta from previous captured frame: 0.000216000 seconds]
    [Time delta from previous displayed frame: 0.000216000 seconds]
    [Time since reference or first frame: 16.371832000 seconds]
    Frame Number: 56
    Frame Length: 64 bytes (512 bits)
    Capture Length: 64 bytes (512 bits)
    [Frame is marked: False]
    [Frame is ignored: False]
    [Protocols in frame: usb]
USB URB

0000  c0 89 ca 36 00 88 ff ff 53 02 80 07 02 00 00 3c   ...6....S......<
0010  5b eb 6e 51 00 00 00 00 2b b1 03 00 8d ff ff ff   [.nQ....+.......
0020  ff 00 00 00 00 00 00 00 80 06 03 03 09 04 ff 00   ................
0030  00 00 00 00 00 00 00 00 00 02 00 00 00 00 00 00   ................

Frame 57: 92 bytes on wire (736 bits), 92 bytes captured (736 bits)
    Arrival Time: Apr 17, 2013 11:35:07.244765000 MST
    Epoch Time: 1366223707.244765000 seconds
    [Time delta from previous captured frame: 0.002802000 seconds]
    [Time delta from previous displayed frame: 0.003018000 seconds]
    [Time since reference or first frame: 16.374634000 seconds]
    Frame Number: 57
    Frame Length: 92 bytes (736 bits)
    Capture Length: 92 bytes (736 bits)
    [Frame is marked: False]
    [Frame is ignored: False]
    [Protocols in frame: usb]
USB URB

0000  c0 89 ca 36 00 88 ff ff 43 02 80 07 02 00 2d 00   ...6....C.....-.
0010  5b eb 6e 51 00 00 00 00 1d bc 03 00 00 00 00 00   [.nQ............
0020  1c 00 00 00 1c 00 00 00 00 00 00 00 00 00 00 00   ................
0030  00 00 00 00 00 00 00 00 00 02 00 00 00 00 00 00   ................
0040  1c 03 30 00 30 00 30 00 32 00 30 00 30 00 30 00   ..0.0.0.2.0.0.0.
0050  37 00 38 00 35 00 39 00 36 00 00 00               7.8.5.9.6...

Frame 58: 64 bytes on wire (512 bits), 64 bytes captured (512 bits)
    Arrival Time: Apr 17, 2013 11:35:07.244905000 MST
    Epoch Time: 1366223707.244905000 seconds
    [Time delta from previous captured frame: 0.000140000 seconds]
    [Time delta from previous displayed frame: 0.000140000 seconds]
    [Time since reference or first frame: 16.374774000 seconds]
    Frame Number: 58
    Frame Length: 64 bytes (512 bits)
    Capture Length: 64 bytes (512 bits)
    [Frame is marked: False]
    [Frame is ignored: False]
    [Protocols in frame: usb]
USB URB

0000  40 3d c6 69 00 88 ff ff 53 02 80 07 02 00 00 3c   @=.i....S......<
0010  5b eb 6e 51 00 00 00 00 a9 bc 03 00 8d ff ff ff   [.nQ............
0020  ff 00 00 00 00 00 00 00 80 06 00 03 00 00 ff 00   ................
0030  00 00 00 00 00 00 00 00 00 02 00 00 00 00 00 00   ................

Frame 59: 68 bytes on wire (544 bits), 68 bytes captured (544 bits)
    Arrival Time: Apr 17, 2013 11:35:07.247705000 MST
    Epoch Time: 1366223707.247705000 seconds
    [Time delta from previous captured frame: 0.002800000 seconds]
    [Time delta from previous displayed frame: 0.002940000 seconds]
    [Time since reference or first frame: 16.377574000 seconds]
    Frame Number: 59
    Frame Length: 68 bytes (544 bits)
    Capture Length: 68 bytes (544 bits)
    [Frame is marked: False]
    [Frame is ignored: False]
    [Protocols in frame: usb]
USB URB

0000  40 3d c6 69 00 88 ff ff 43 02 80 07 02 00 2d 00   @=.i....C.....-.
0010  5b eb 6e 51 00 00 00 00 99 c7 03 00 00 00 00 00   [.nQ............
0020  04 00 00 00 04 00 00 00 00 00 00 00 00 00 00 00   ................
0030  00 00 00 00 00 00 00 00 00 02 00 00 00 00 00 00   ................
0040  04 03 09 04                                       ....

Frame 60: 64 bytes on wire (512 bits), 64 bytes captured (512 bits)
    Arrival Time: Apr 17, 2013 11:35:07.247882000 MST
    Epoch Time: 1366223707.247882000 seconds
    [Time delta from previous captured frame: 0.000177000 seconds]
    [Time delta from previous displayed frame: 0.000177000 seconds]
    [Time since reference or first frame: 16.377751000 seconds]
    Frame Number: 60
    Frame Length: 64 bytes (512 bits)
    Capture Length: 64 bytes (512 bits)
    [Frame is marked: False]
    [Frame is ignored: False]
    [Protocols in frame: usb]
USB URB

0000  00 38 df 7a 00 88 ff ff 53 02 80 07 02 00 00 3c   .8.z....S......<
0010  5b eb 6e 51 00 00 00 00 4a c8 03 00 8d ff ff ff   [.nQ....J.......
0020  ff 00 00 00 00 00 00 00 80 06 02 03 09 04 ff 00   ................
0030  00 00 00 00 00 00 00 00 00 02 00 00 00 00 00 00   ................

Frame 61: 88 bytes on wire (704 bits), 88 bytes captured (704 bits)
    Arrival Time: Apr 17, 2013 11:35:07.250060000 MST
    Epoch Time: 1366223707.250060000 seconds
    [Time delta from previous captured frame: 0.002178000 seconds]
    [Time delta from previous displayed frame: 0.002355000 seconds]
    [Time since reference or first frame: 16.379929000 seconds]
    Frame Number: 61
    Frame Length: 88 bytes (704 bits)
    Capture Length: 88 bytes (704 bits)
    [Frame is marked: False]
    [Frame is ignored: False]
    [Protocols in frame: usb]
USB URB

0000  00 38 df 7a 00 88 ff ff 43 02 80 07 02 00 2d 00   .8.z....C.....-.
0010  5b eb 6e 51 00 00 00 00 cc d0 03 00 00 00 00 00   [.nQ............
0020  18 00 00 00 18 00 00 00 00 00 00 00 00 00 00 00   ................
0030  00 00 00 00 00 00 00 00 00 02 00 00 00 00 00 00   ................
0040  18 03 41 00 56 00 52 00 49 00 53 00 50 00 20 00   ..A.V.R.I.S.P. .
0050  6d 00 6b 00 49 00 49 00                           m.k.I.I.

Frame 62: 64 bytes on wire (512 bits), 64 bytes captured (512 bits)
    Arrival Time: Apr 17, 2013 11:35:07.250149000 MST
    Epoch Time: 1366223707.250149000 seconds
    [Time delta from previous captured frame: 0.000089000 seconds]
    [Time delta from previous displayed frame: 0.000089000 seconds]
    [Time since reference or first frame: 16.380018000 seconds]
    Frame Number: 62
    Frame Length: 64 bytes (512 bits)
    Capture Length: 64 bytes (512 bits)
    [Frame is marked: False]
    [Frame is ignored: False]
    [Protocols in frame: usb]
USB URB

0000  80 93 ca 36 00 88 ff ff 53 02 00 07 02 00 00 00   ...6....S.......
0010  5b eb 6e 51 00 00 00 00 25 d1 03 00 8d ff ff ff   [.nQ....%.......
0020  00 00 00 00 00 00 00 00 00 09 01 00 00 00 00 00   ................
0030  00 00 00 00 00 00 00 00 00 00 00 00 00 00 00 00   ................

Frame 63: 64 bytes on wire (512 bits), 64 bytes captured (512 bits)
    Arrival Time: Apr 17, 2013 11:35:07.275770000 MST
    Epoch Time: 1366223707.275770000 seconds
    [Time delta from previous captured frame: 0.025621000 seconds]
    [Time delta from previous displayed frame: 0.025621000 seconds]
    [Time since reference or first frame: 16.405639000 seconds]
    Frame Number: 63
    Frame Length: 64 bytes (512 bits)
    Capture Length: 64 bytes (512 bits)
    [Frame is marked: False]
    [Frame is ignored: False]
    [Protocols in frame: usb]
USB URB

0000  80 93 ca 36 00 88 ff ff 43 02 00 07 02 00 2d 3e   ...6....C.....->
0010  5b eb 6e 51 00 00 00 00 3a 35 04 00 00 00 00 00   [.nQ....:5......
0020  00 00 00 00 00 00 00 00 00 00 00 00 00 00 00 00   ................
0030  00 00 00 00 00 00 00 00 00 00 00 00 00 00 00 00   ................

Frame 64: 64 bytes on wire (512 bits), 64 bytes captured (512 bits)
    Arrival Time: Apr 17, 2013 11:35:07.275918000 MST
    Epoch Time: 1366223707.275918000 seconds
    [Time delta from previous captured frame: 0.000148000 seconds]
    [Time delta from previous displayed frame: 0.025769000 seconds]
    [Time since reference or first frame: 16.405787000 seconds]
    Frame Number: 64
    Frame Length: 64 bytes (512 bits)
    Capture Length: 64 bytes (512 bits)
    [Frame is marked: False]
    [Frame is ignored: False]
    [Protocols in frame: usb]
USB URB

0000  80 93 ca 36 00 88 ff ff 53 03 82 07 02 00 2d 3c   ...6....S.....-<
0010  5b eb 6e 51 00 00 00 00 ce 35 04 00 8d ff ff ff   [.nQ.....5......
0020  40 00 00 00 00 00 00 00 00 00 00 00 00 00 00 00   @...............
0030  00 00 00 00 00 00 00 00 00 02 00 00 00 00 00 00   ................

Frame 65: 64 bytes on wire (512 bits), 64 bytes captured (512 bits)
    Arrival Time: Apr 17, 2013 11:35:07.380117000 MST
    Epoch Time: 1366223707.380117000 seconds
    [Time delta from previous captured frame: 0.104199000 seconds]
    [Time delta from previous displayed frame: 0.129968000 seconds]
    [Time since reference or first frame: 16.509986000 seconds]
    Frame Number: 65
    Frame Length: 64 bytes (512 bits)
    Capture Length: 64 bytes (512 bits)
    [Frame is marked: False]
    [Frame is ignored: False]
    [Protocols in frame: usb]
USB URB

0000  80 93 ca 36 00 88 ff ff 43 03 82 07 02 00 2d 00   ...6....C.....-.
0010  5b eb 6e 51 00 00 00 00 d5 cc 05 00 fe ff ff ff   [.nQ............
0020  00 00 00 00 00 00 00 00 00 00 00 00 00 00 00 00   ................
0030  00 00 00 00 00 00 00 00 00 02 00 00 00 00 00 00   ................

Frame 66: 65 bytes on wire (520 bits), 65 bytes captured (520 bits)
    Arrival Time: Apr 17, 2013 11:35:07.380231000 MST
    Epoch Time: 1366223707.380231000 seconds
    [Time delta from previous captured frame: 0.000114000 seconds]
    [Time delta from previous displayed frame: 0.000114000 seconds]
    [Time since reference or first frame: 16.510100000 seconds]
    Frame Number: 66
    Frame Length: 65 bytes (520 bits)
    Capture Length: 65 bytes (520 bits)
    [Frame is marked: False]
    [Frame is ignored: False]
    [Protocols in frame: usb]
USB URB

0000  80 93 ca 36 00 88 ff ff 53 03 02 07 02 00 2d 00   ...6....S.....-.
0010  5b eb 6e 51 00 00 00 00 47 cd 05 00 8d ff ff ff   [.nQ....G.......
0020  01 00 00 00 01 00 00 00 00 00 00 00 00 00 00 00   ................
0030  00 00 00 00 00 00 00 00 00 00 00 00 00 00 00 00   ................
0040  01                                                .

Frame 67: 64 bytes on wire (512 bits), 64 bytes captured (512 bits)
    Arrival Time: Apr 17, 2013 11:35:07.391390000 MST
    Epoch Time: 1366223707.391390000 seconds
    [Time delta from previous captured frame: 0.011159000 seconds]
    [Time delta from previous displayed frame: 0.011159000 seconds]
    [Time since reference or first frame: 16.521259000 seconds]
    Frame Number: 67
    Frame Length: 64 bytes (512 bits)
    Capture Length: 64 bytes (512 bits)
    [Frame is marked: False]
    [Frame is ignored: False]
    [Protocols in frame: usb]
USB URB

0000  80 93 ca 36 00 88 ff ff 43 03 02 07 02 00 2d 3e   ...6....C.....->
0010  5b eb 6e 51 00 00 00 00 de f8 05 00 00 00 00 00   [.nQ............
0020  01 00 00 00 00 00 00 00 00 00 00 00 00 00 00 00   ................
0030  00 00 00 00 00 00 00 00 00 00 00 00 00 00 00 00   ................

Frame 68: 64 bytes on wire (512 bits), 64 bytes captured (512 bits)
    Arrival Time: Apr 17, 2013 11:35:07.391454000 MST
    Epoch Time: 1366223707.391454000 seconds
    [Time delta from previous captured frame: 0.000064000 seconds]
    [Time delta from previous displayed frame: 0.011223000 seconds]
    [Time since reference or first frame: 16.521323000 seconds]
    Frame Number: 68
    Frame Length: 64 bytes (512 bits)
    Capture Length: 64 bytes (512 bits)
    [Frame is marked: False]
    [Frame is ignored: False]
    [Protocols in frame: usb]
USB URB

0000  80 93 ca 36 00 88 ff ff 53 03 82 07 02 00 2d 3c   ...6....S.....-<
0010  5b eb 6e 51 00 00 00 00 1e f9 05 00 8d ff ff ff   [.nQ............
0020  40 00 00 00 00 00 00 00 00 00 00 00 00 00 00 00   @...............
0030  00 00 00 00 00 00 00 00 00 02 00 00 00 00 00 00   ................

Frame 69: 77 bytes on wire (616 bits), 77 bytes captured (616 bits)
    Arrival Time: Apr 17, 2013 11:35:07.392804000 MST
    Epoch Time: 1366223707.392804000 seconds
    [Time delta from previous captured frame: 0.001350000 seconds]
    [Time delta from previous displayed frame: 0.012573000 seconds]
    [Time since reference or first frame: 16.522673000 seconds]
    Frame Number: 69
    Frame Length: 77 bytes (616 bits)
    Capture Length: 77 bytes (616 bits)
    [Frame is marked: False]
    [Frame is ignored: False]
    [Protocols in frame: usb]
USB URB

0000  80 93 ca 36 00 88 ff ff 43 03 82 07 02 00 2d 00   ...6....C.....-.
0010  5b eb 6e 51 00 00 00 00 64 fe 05 00 00 00 00 00   [.nQ....d.......
0020  0d 00 00 00 0d 00 00 00 00 00 00 00 00 00 00 00   ................
0030  00 00 00 00 00 00 00 00 00 02 00 00 00 00 00 00   ................
0040  01 00 0a 41 56 52 49 53 50 5f 4d 4b 32            ...AVRISP_MK2

Frame 70: 64 bytes on wire (512 bits), 64 bytes captured (512 bits)
    Arrival Time: Apr 17, 2013 11:35:07.392841000 MST
    Epoch Time: 1366223707.392841000 seconds
    [Time delta from previous captured frame: 0.000037000 seconds]
    [Time delta from previous displayed frame: 0.000037000 seconds]
    [Time since reference or first frame: 16.522710000 seconds]
    Frame Number: 70
    Frame Length: 64 bytes (512 bits)
    Capture Length: 64 bytes (512 bits)
    [Frame is marked: False]
    [Frame is ignored: False]
    [Protocols in frame: usb]
USB URB

0000  80 93 ca 36 00 88 ff ff 53 03 82 07 02 00 2d 3c   ...6....S.....-<
0010  5b eb 6e 51 00 00 00 00 89 fe 05 00 8d ff ff ff   [.nQ............
0020  40 00 00 00 00 00 00 00 00 00 00 00 00 00 00 00   @...............
0030  00 00 00 00 00 00 00 00 00 02 00 00 00 00 00 00   ................

Frame 71: 64 bytes on wire (512 bits), 64 bytes captured (512 bits)
    Arrival Time: Apr 17, 2013 11:35:07.497501000 MST
    Epoch Time: 1366223707.497501000 seconds
    [Time delta from previous captured frame: 0.104660000 seconds]
    [Time delta from previous displayed frame: 0.104697000 seconds]
    [Time since reference or first frame: 16.627370000 seconds]
    Frame Number: 71
    Frame Length: 64 bytes (512 bits)
    Capture Length: 64 bytes (512 bits)
    [Frame is marked: False]
    [Frame is ignored: False]
    [Protocols in frame: usb]
USB URB

0000  80 93 ca 36 00 88 ff ff 43 03 82 07 02 00 2d 00   ...6....C.....-.
0010  5b eb 6e 51 00 00 00 00 5d 97 07 00 fe ff ff ff   [.nQ....].......
0020  00 00 00 00 00 00 00 00 00 00 00 00 00 00 00 00   ................
0030  00 00 00 00 00 00 00 00 00 02 00 00 00 00 00 00   ................

Frame 72: 76 bytes on wire (608 bits), 76 bytes captured (608 bits)
    Arrival Time: Apr 17, 2013 11:35:07.497974000 MST
    Epoch Time: 1366223707.497974000 seconds
    [Time delta from previous captured frame: 0.000473000 seconds]
    [Time delta from previous displayed frame: 0.000473000 seconds]
    [Time since reference or first frame: 16.627843000 seconds]
    Frame Number: 72
    Frame Length: 76 bytes (608 bits)
    Capture Length: 76 bytes (608 bits)
    [Frame is marked: False]
    [Frame is ignored: False]
    [Protocols in frame: usb]
USB URB

0000  80 93 ca 36 00 88 ff ff 53 03 02 07 02 00 2d 00   ...6....S.....-.
0010  5b eb 6e 51 00 00 00 00 36 99 07 00 8d ff ff ff   [.nQ....6.......
0020  0c 00 00 00 0c 00 00 00 00 00 00 00 00 00 00 00   ................
0030  00 00 00 00 00 00 00 00 00 00 00 00 00 00 00 00   ................
0040  10 c8 64 19 20 00 53 03 ac 53 00 00               ..d. .S..S..

Frame 73: 64 bytes on wire (512 bits), 64 bytes captured (512 bits)
    Arrival Time: Apr 17, 2013 11:35:07.508798000 MST
    Epoch Time: 1366223707.508798000 seconds
    [Time delta from previous captured frame: 0.010824000 seconds]
    [Time delta from previous displayed frame: 0.010824000 seconds]
    [Time since reference or first frame: 16.638667000 seconds]
    Frame Number: 73
    Frame Length: 64 bytes (512 bits)
    Capture Length: 64 bytes (512 bits)
    [Frame is marked: False]
    [Frame is ignored: False]
    [Protocols in frame: usb]
USB URB

0000  80 93 ca 36 00 88 ff ff 43 03 02 07 02 00 2d 3e   ...6....C.....->
0010  5b eb 6e 51 00 00 00 00 7e c3 07 00 00 00 00 00   [.nQ....~.......
0020  0c 00 00 00 00 00 00 00 00 00 00 00 00 00 00 00   ................
0030  00 00 00 00 00 00 00 00 00 00 00 00 00 00 00 00   ................

Frame 74: 64 bytes on wire (512 bits), 64 bytes captured (512 bits)
    Arrival Time: Apr 17, 2013 11:35:07.508962000 MST
    Epoch Time: 1366223707.508962000 seconds
    [Time delta from previous captured frame: 0.000164000 seconds]
    [Time delta from previous displayed frame: 0.010988000 seconds]
    [Time since reference or first frame: 16.638831000 seconds]
    Frame Number: 74
    Frame Length: 64 bytes (512 bits)
    Capture Length: 64 bytes (512 bits)
    [Frame is marked: False]
    [Frame is ignored: False]
    [Protocols in frame: usb]
USB URB

0000  80 93 ca 36 00 88 ff ff 53 03 82 07 02 00 2d 3c   ...6....S.....-<
0010  5b eb 6e 51 00 00 00 00 22 c4 07 00 8d ff ff ff   [.nQ....".......
0020  40 00 00 00 00 00 00 00 00 00 00 00 00 00 00 00   @...............
0030  00 00 00 00 00 00 00 00 00 02 00 00 00 00 00 00   ................

Frame 75: 66 bytes on wire (528 bits), 66 bytes captured (528 bits)
    Arrival Time: Apr 17, 2013 11:35:07.546432000 MST
    Epoch Time: 1366223707.546432000 seconds
    [Time delta from previous captured frame: 0.037470000 seconds]
    [Time delta from previous displayed frame: 0.048458000 seconds]
    [Time since reference or first frame: 16.676301000 seconds]
    Frame Number: 75
    Frame Length: 66 bytes (528 bits)
    Capture Length: 66 bytes (528 bits)
    [Frame is marked: False]
    [Frame is ignored: False]
    [Protocols in frame: usb]
USB URB

0000  80 93 ca 36 00 88 ff ff 43 03 82 07 02 00 2d 00   ...6....C.....-.
0010  5b eb 6e 51 00 00 00 00 80 56 08 00 00 00 00 00   [.nQ.....V......
0020  02 00 00 00 02 00 00 00 00 00 00 00 00 00 00 00   ................
0030  00 00 00 00 00 00 00 00 00 02 00 00 00 00 00 00   ................
0040  10 00                                             ..

Frame 76: 72 bytes on wire (576 bits), 72 bytes captured (576 bits)
    Arrival Time: Apr 17, 2013 11:35:07.546662000 MST
    Epoch Time: 1366223707.546662000 seconds
    [Time delta from previous captured frame: 0.000230000 seconds]
    [Time delta from previous displayed frame: 0.000230000 seconds]
    [Time since reference or first frame: 16.676531000 seconds]
    Frame Number: 76
    Frame Length: 72 bytes (576 bits)
    Capture Length: 72 bytes (576 bits)
    [Frame is marked: False]
    [Frame is ignored: False]
    [Protocols in frame: usb]
USB URB

0000  00 29 df 7a 00 88 ff ff 53 03 02 07 02 00 2d 00   .).z....S.....-.
0010  5b eb 6e 51 00 00 00 00 66 57 08 00 8d ff ff ff   [.nQ....fW......
0020  08 00 00 00 08 00 00 00 00 00 00 00 00 00 00 00   ................
0030  00 00 00 00 00 00 00 00 00 00 00 00 00 00 00 00   ................
0040  1d 04 04 00 30 00 00 00                           ....0...

Frame 77: 64 bytes on wire (512 bits), 64 bytes captured (512 bits)
    Arrival Time: Apr 17, 2013 11:35:07.547852000 MST
    Epoch Time: 1366223707.547852000 seconds
    [Time delta from previous captured frame: 0.001190000 seconds]
    [Time delta from previous displayed frame: 0.001190000 seconds]
    [Time since reference or first frame: 16.677721000 seconds]
    Frame Number: 77
    Frame Length: 64 bytes (512 bits)
    Capture Length: 64 bytes (512 bits)
    [Frame is marked: False]
    [Frame is ignored: False]
    [Protocols in frame: usb]
USB URB

0000  00 29 df 7a 00 88 ff ff 43 03 02 07 02 00 2d 3e   .).z....C.....->
0010  5b eb 6e 51 00 00 00 00 0c 5c 08 00 00 00 00 00   [.nQ.....\......
0020  08 00 00 00 00 00 00 00 00 00 00 00 00 00 00 00   ................
0030  00 00 00 00 00 00 00 00 00 00 00 00 00 00 00 00   ................

Frame 78: 64 bytes on wire (512 bits), 64 bytes captured (512 bits)
    Arrival Time: Apr 17, 2013 11:35:07.547900000 MST
    Epoch Time: 1366223707.547900000 seconds
    [Time delta from previous captured frame: 0.000048000 seconds]
    [Time delta from previous displayed frame: 0.001238000 seconds]
    [Time since reference or first frame: 16.677769000 seconds]
    Frame Number: 78
    Frame Length: 64 bytes (512 bits)
    Capture Length: 64 bytes (512 bits)
    [Frame is marked: False]
    [Frame is ignored: False]
    [Protocols in frame: usb]
USB URB

0000  00 29 df 7a 00 88 ff ff 53 03 82 07 02 00 2d 3c   .).z....S.....-<
0010  5b eb 6e 51 00 00 00 00 3c 5c 08 00 8d ff ff ff   [.nQ....<\......
0020  40 00 00 00 00 00 00 00 00 00 00 00 00 00 00 00   @...............
0030  00 00 00 00 00 00 00 00 00 02 00 00 00 00 00 00   ................

Frame 79: 71 bytes on wire (568 bits), 71 bytes captured (568 bits)
    Arrival Time: Apr 17, 2013 11:35:07.549427000 MST
    Epoch Time: 1366223707.549427000 seconds
    [Time delta from previous captured frame: 0.001527000 seconds]
    [Time delta from previous displayed frame: 0.002765000 seconds]
    [Time since reference or first frame: 16.679296000 seconds]
    Frame Number: 79
    Frame Length: 71 bytes (568 bits)
    Capture Length: 71 bytes (568 bits)
    [Frame is marked: False]
    [Frame is ignored: False]
    [Protocols in frame: usb]
USB URB

0000  00 29 df 7a 00 88 ff ff 43 03 82 07 02 00 2d 00   .).z....C.....-.
0010  5b eb 6e 51 00 00 00 00 33 62 08 00 00 00 00 00   [.nQ....3b......
0020  07 00 00 00 07 00 00 00 00 00 00 00 00 00 00 00   ................
0030  00 00 00 00 00 00 00 00 00 02 00 00 00 00 00 00   ................
0040  1d 00 00 30 00 1e 00                              ...0...

Frame 80: 72 bytes on wire (576 bits), 72 bytes captured (576 bits)
    Arrival Time: Apr 17, 2013 11:35:07.549553000 MST
    Epoch Time: 1366223707.549553000 seconds
    [Time delta from previous captured frame: 0.000126000 seconds]
    [Time delta from previous displayed frame: 0.000126000 seconds]
    [Time since reference or first frame: 16.679422000 seconds]
    Frame Number: 80
    Frame Length: 72 bytes (576 bits)
    Capture Length: 72 bytes (576 bits)
    [Frame is marked: False]
    [Frame is ignored: False]
    [Protocols in frame: usb]
USB URB

0000  00 29 df 7a 00 88 ff ff 53 03 02 07 02 00 2d 00   .).z....S.....-.
0010  5b eb 6e 51 00 00 00 00 b1 62 08 00 8d ff ff ff   [.nQ.....b......
0020  08 00 00 00 08 00 00 00 00 00 00 00 00 00 00 00   ................
0030  00 00 00 00 00 00 00 00 00 00 00 00 00 00 00 00   ................
0040  1d 04 04 00 30 00 01 00                           ....0...

Frame 81: 64 bytes on wire (512 bits), 64 bytes captured (512 bits)
    Arrival Time: Apr 17, 2013 11:35:07.550911000 MST
    Epoch Time: 1366223707.550911000 seconds
    [Time delta from previous captured frame: 0.001358000 seconds]
    [Time delta from previous displayed frame: 0.001358000 seconds]
    [Time since reference or first frame: 16.680780000 seconds]
    Frame Number: 81
    Frame Length: 64 bytes (512 bits)
    Capture Length: 64 bytes (512 bits)
    [Frame is marked: False]
    [Frame is ignored: False]
    [Protocols in frame: usb]
USB URB

0000  00 29 df 7a 00 88 ff ff 43 03 02 07 02 00 2d 3e   .).z....C.....->
0010  5b eb 6e 51 00 00 00 00 ff 67 08 00 00 00 00 00   [.nQ.....g......
0020  08 00 00 00 00 00 00 00 00 00 00 00 00 00 00 00   ................
0030  00 00 00 00 00 00 00 00 00 00 00 00 00 00 00 00   ................

Frame 82: 64 bytes on wire (512 bits), 64 bytes captured (512 bits)
    Arrival Time: Apr 17, 2013 11:35:07.551024000 MST
    Epoch Time: 1366223707.551024000 seconds
    [Time delta from previous captured frame: 0.000113000 seconds]
    [Time delta from previous displayed frame: 0.001471000 seconds]
    [Time since reference or first frame: 16.680893000 seconds]
    Frame Number: 82
    Frame Length: 64 bytes (512 bits)
    Capture Length: 64 bytes (512 bits)
    [Frame is marked: False]
    [Frame is ignored: False]
    [Protocols in frame: usb]
USB URB

0000  00 29 df 7a 00 88 ff ff 53 03 82 07 02 00 2d 3c   .).z....S.....-<
0010  5b eb 6e 51 00 00 00 00 70 68 08 00 8d ff ff ff   [.nQ....ph......
0020  40 00 00 00 00 00 00 00 00 00 00 00 00 00 00 00   @...............
0030  00 00 00 00 00 00 00 00 00 02 00 00 00 00 00 00   ................

Frame 83: 71 bytes on wire (568 bits), 71 bytes captured (568 bits)
    Arrival Time: Apr 17, 2013 11:35:07.552343000 MST
    Epoch Time: 1366223707.552343000 seconds
    [Time delta from previous captured frame: 0.001319000 seconds]
    [Time delta from previous displayed frame: 0.002790000 seconds]
    [Time since reference or first frame: 16.682212000 seconds]
    Frame Number: 83
    Frame Length: 71 bytes (568 bits)
    Capture Length: 71 bytes (568 bits)
    [Frame is marked: False]
    [Frame is ignored: False]
    [Protocols in frame: usb]
USB URB

0000  00 29 df 7a 00 88 ff ff 43 03 82 07 02 00 2d 00   .).z....C.....-.
0010  5b eb 6e 51 00 00 00 00 97 6d 08 00 00 00 00 00   [.nQ.....m......
0020  07 00 00 00 07 00 00 00 00 00 00 00 00 00 00 00   ................
0030  00 00 00 00 00 00 00 00 00 02 00 00 00 00 00 00   ................
0040  1d 00 00 30 00 93 00                              ...0...

Frame 84: 72 bytes on wire (576 bits), 72 bytes captured (576 bits)
    Arrival Time: Apr 17, 2013 11:35:07.552398000 MST
    Epoch Time: 1366223707.552398000 seconds
    [Time delta from previous captured frame: 0.000055000 seconds]
    [Time delta from previous displayed frame: 0.000055000 seconds]
    [Time since reference or first frame: 16.682267000 seconds]
    Frame Number: 84
    Frame Length: 72 bytes (576 bits)
    Capture Length: 72 bytes (576 bits)
    [Frame is marked: False]
    [Frame is ignored: False]
    [Protocols in frame: usb]
USB URB

0000  00 29 df 7a 00 88 ff ff 53 03 02 07 02 00 2d 00   .).z....S.....-.
0010  5b eb 6e 51 00 00 00 00 ce 6d 08 00 8d ff ff ff   [.nQ.....m......
0020  08 00 00 00 08 00 00 00 00 00 00 00 00 00 00 00   ................
0030  00 00 00 00 00 00 00 00 00 00 00 00 00 00 00 00   ................
0040  1d 04 04 00 30 00 02 00                           ....0...

Frame 85: 64 bytes on wire (512 bits), 64 bytes captured (512 bits)
    Arrival Time: Apr 17, 2013 11:35:07.553843000 MST
    Epoch Time: 1366223707.553843000 seconds
    [Time delta from previous captured frame: 0.001445000 seconds]
    [Time delta from previous displayed frame: 0.001445000 seconds]
    [Time since reference or first frame: 16.683712000 seconds]
    Frame Number: 85
    Frame Length: 64 bytes (512 bits)
    Capture Length: 64 bytes (512 bits)
    [Frame is marked: False]
    [Frame is ignored: False]
    [Protocols in frame: usb]
USB URB

0000  00 29 df 7a 00 88 ff ff 43 03 02 07 02 00 2d 3e   .).z....C.....->
0010  5b eb 6e 51 00 00 00 00 73 73 08 00 00 00 00 00   [.nQ....ss......
0020  08 00 00 00 00 00 00 00 00 00 00 00 00 00 00 00   ................
0030  00 00 00 00 00 00 00 00 00 00 00 00 00 00 00 00   ................

Frame 86: 64 bytes on wire (512 bits), 64 bytes captured (512 bits)
    Arrival Time: Apr 17, 2013 11:35:07.553949000 MST
    Epoch Time: 1366223707.553949000 seconds
    [Time delta from previous captured frame: 0.000106000 seconds]
    [Time delta from previous displayed frame: 0.001551000 seconds]
    [Time since reference or first frame: 16.683818000 seconds]
    Frame Number: 86
    Frame Length: 64 bytes (512 bits)
    Capture Length: 64 bytes (512 bits)
    [Frame is marked: False]
    [Frame is ignored: False]
    [Protocols in frame: usb]
USB URB

0000  00 29 df 7a 00 88 ff ff 53 03 82 07 02 00 2d 3c   .).z....S.....-<
0010  5b eb 6e 51 00 00 00 00 dd 73 08 00 8d ff ff ff   [.nQ.....s......
0020  40 00 00 00 00 00 00 00 00 00 00 00 00 00 00 00   @...............
0030  00 00 00 00 00 00 00 00 00 02 00 00 00 00 00 00   ................

Frame 87: 71 bytes on wire (568 bits), 71 bytes captured (568 bits)
    Arrival Time: Apr 17, 2013 11:35:07.555085000 MST
    Epoch Time: 1366223707.555085000 seconds
    [Time delta from previous captured frame: 0.001136000 seconds]
    [Time delta from previous displayed frame: 0.002687000 seconds]
    [Time since reference or first frame: 16.684954000 seconds]
    Frame Number: 87
    Frame Length: 71 bytes (568 bits)
    Capture Length: 71 bytes (568 bits)
    [Frame is marked: False]
    [Frame is ignored: False]
    [Protocols in frame: usb]
USB URB

0000  00 29 df 7a 00 88 ff ff 43 03 82 07 02 00 2d 00   .).z....C.....-.
0010  5b eb 6e 51 00 00 00 00 4d 78 08 00 00 00 00 00   [.nQ....Mx......
0020  07 00 00 00 07 00 00 00 00 00 00 00 00 00 00 00   ................
0030  00 00 00 00 00 00 00 00 00 02 00 00 00 00 00 00   ................
0040  1d 00 00 30 00 0f 00                              ...0...

Frame 88: 72 bytes on wire (576 bits), 72 bytes captured (576 bits)
    Arrival Time: Apr 17, 2013 11:35:07.555261000 MST
    Epoch Time: 1366223707.555261000 seconds
    [Time delta from previous captured frame: 0.000176000 seconds]
    [Time delta from previous displayed frame: 0.000176000 seconds]
    [Time since reference or first frame: 16.685130000 seconds]
    Frame Number: 88
    Frame Length: 72 bytes (576 bits)
    Capture Length: 72 bytes (576 bits)
    [Frame is marked: False]
    [Frame is ignored: False]
    [Protocols in frame: usb]
USB URB

0000  00 98 ca 36 00 88 ff ff 53 03 02 07 02 00 2d 00   ...6....S.....-.
0010  5b eb 6e 51 00 00 00 00 fd 78 08 00 8d ff ff ff   [.nQ.....x......
0020  08 00 00 00 08 00 00 00 00 00 00 00 00 00 00 00   ................
0030  00 00 00 00 00 00 00 00 00 00 00 00 00 00 00 00   ................
0040  1d 04 04 00 50 00 00 00                           ....P...

Frame 89: 64 bytes on wire (512 bits), 64 bytes captured (512 bits)
    Arrival Time: Apr 17, 2013 11:35:07.556437000 MST
    Epoch Time: 1366223707.556437000 seconds
    [Time delta from previous captured frame: 0.001176000 seconds]
    [Time delta from previous displayed frame: 0.001176000 seconds]
    [Time since reference or first frame: 16.686306000 seconds]
    Frame Number: 89
    Frame Length: 64 bytes (512 bits)
    Capture Length: 64 bytes (512 bits)
    [Frame is marked: False]
    [Frame is ignored: False]
    [Protocols in frame: usb]
USB URB

0000  00 98 ca 36 00 88 ff ff 43 03 02 07 02 00 2d 3e   ...6....C.....->
0010  5b eb 6e 51 00 00 00 00 95 7d 08 00 00 00 00 00   [.nQ.....}......
0020  08 00 00 00 00 00 00 00 00 00 00 00 00 00 00 00   ................
0030  00 00 00 00 00 00 00 00 00 00 00 00 00 00 00 00   ................

Frame 90: 64 bytes on wire (512 bits), 64 bytes captured (512 bits)
    Arrival Time: Apr 17, 2013 11:35:07.556463000 MST
    Epoch Time: 1366223707.556463000 seconds
    [Time delta from previous captured frame: 0.000026000 seconds]
    [Time delta from previous displayed frame: 0.001202000 seconds]
    [Time since reference or first frame: 16.686332000 seconds]
    Frame Number: 90
    Frame Length: 64 bytes (512 bits)
    Capture Length: 64 bytes (512 bits)
    [Frame is marked: False]
    [Frame is ignored: False]
    [Protocols in frame: usb]
USB URB

0000  00 23 df 7a 00 88 ff ff 53 03 82 07 02 00 2d 3c   .#.z....S.....-<
0010  5b eb 6e 51 00 00 00 00 af 7d 08 00 8d ff ff ff   [.nQ.....}......
0020  40 00 00 00 00 00 00 00 00 00 00 00 00 00 00 00   @...............
0030  00 00 00 00 00 00 00 00 00 02 00 00 00 00 00 00   ................

Frame 91: 71 bytes on wire (568 bits), 71 bytes captured (568 bits)
    Arrival Time: Apr 17, 2013 11:35:07.557790000 MST
    Epoch Time: 1366223707.557790000 seconds
    [Time delta from previous captured frame: 0.001327000 seconds]
    [Time delta from previous displayed frame: 0.002529000 seconds]
    [Time since reference or first frame: 16.687659000 seconds]
    Frame Number: 91
    Frame Length: 71 bytes (568 bits)
    Capture Length: 71 bytes (568 bits)
    [Frame is marked: False]
    [Frame is ignored: False]
    [Protocols in frame: usb]
USB URB

0000  00 23 df 7a 00 88 ff ff 43 03 82 07 02 00 2d 00   .#.z....C.....-.
0010  5b eb 6e 51 00 00 00 00 de 82 08 00 00 00 00 00   [.nQ............
0020  07 00 00 00 07 00 00 00 00 00 00 00 00 00 00 00   ................
0030  00 00 00 00 00 00 00 00 00 02 00 00 00 00 00 00   ................
0040  1d 00 00 50 00 62 00                              ...P.b.

Frame 92: 72 bytes on wire (576 bits), 72 bytes captured (576 bits)
    Arrival Time: Apr 17, 2013 11:35:07.557840000 MST
    Epoch Time: 1366223707.557840000 seconds
    [Time delta from previous captured frame: 0.000050000 seconds]
    [Time delta from previous displayed frame: 0.000050000 seconds]
    [Time since reference or first frame: 16.687709000 seconds]
    Frame Number: 92
    Frame Length: 72 bytes (576 bits)
    Capture Length: 72 bytes (576 bits)
    [Frame is marked: False]
    [Frame is ignored: False]
    [Protocols in frame: usb]
USB URB

0000  00 23 df 7a 00 88 ff ff 53 03 02 07 02 00 2d 00   .#.z....S.....-.
0010  5b eb 6e 51 00 00 00 00 10 83 08 00 8d ff ff ff   [.nQ............
0020  08 00 00 00 08 00 00 00 00 00 00 00 00 00 00 00   ................
0030  00 00 00 00 00 00 00 00 00 00 00 00 00 00 00 00   ................
0040  1d 04 04 00 50 00 00 00                           ....P...

Frame 93: 64 bytes on wire (512 bits), 64 bytes captured (512 bits)
    Arrival Time: Apr 17, 2013 11:35:07.559349000 MST
    Epoch Time: 1366223707.559349000 seconds
    [Time delta from previous captured frame: 0.001509000 seconds]
    [Time delta from previous displayed frame: 0.001509000 seconds]
    [Time since reference or first frame: 16.689218000 seconds]
    Frame Number: 93
    Frame Length: 64 bytes (512 bits)
    Capture Length: 64 bytes (512 bits)
    [Frame is marked: False]
    [Frame is ignored: False]
    [Protocols in frame: usb]
USB URB

0000  00 23 df 7a 00 88 ff ff 43 03 02 07 02 00 2d 3e   .#.z....C.....->
0010  5b eb 6e 51 00 00 00 00 f5 88 08 00 00 00 00 00   [.nQ............
0020  08 00 00 00 00 00 00 00 00 00 00 00 00 00 00 00   ................
0030  00 00 00 00 00 00 00 00 00 00 00 00 00 00 00 00   ................

Frame 94: 64 bytes on wire (512 bits), 64 bytes captured (512 bits)
    Arrival Time: Apr 17, 2013 11:35:07.559440000 MST
    Epoch Time: 1366223707.559440000 seconds
    [Time delta from previous captured frame: 0.000091000 seconds]
    [Time delta from previous displayed frame: 0.001600000 seconds]
    [Time since reference or first frame: 16.689309000 seconds]
    Frame Number: 94
    Frame Length: 64 bytes (512 bits)
    Capture Length: 64 bytes (512 bits)
    [Frame is marked: False]
    [Frame is ignored: False]
    [Protocols in frame: usb]
USB URB

0000  00 23 df 7a 00 88 ff ff 53 03 82 07 02 00 2d 3c   .#.z....S.....-<
0010  5b eb 6e 51 00 00 00 00 50 89 08 00 8d ff ff ff   [.nQ....P.......
0020  40 00 00 00 00 00 00 00 00 00 00 00 00 00 00 00   @...............
0030  00 00 00 00 00 00 00 00 00 02 00 00 00 00 00 00   ................

Frame 95: 71 bytes on wire (568 bits), 71 bytes captured (568 bits)
    Arrival Time: Apr 17, 2013 11:35:07.560890000 MST
    Epoch Time: 1366223707.560890000 seconds
    [Time delta from previous captured frame: 0.001450000 seconds]
    [Time delta from previous displayed frame: 0.003050000 seconds]
    [Time since reference or first frame: 16.690759000 seconds]
    Frame Number: 95
    Frame Length: 71 bytes (568 bits)
    Capture Length: 71 bytes (568 bits)
    [Frame is marked: False]
    [Frame is ignored: False]
    [Protocols in frame: usb]
USB URB

0000  00 23 df 7a 00 88 ff ff 43 03 82 07 02 00 2d 00   .#.z....C.....-.
0010  5b eb 6e 51 00 00 00 00 fa 8e 08 00 00 00 00 00   [.nQ............
0020  07 00 00 00 07 00 00 00 00 00 00 00 00 00 00 00   ................
0030  00 00 00 00 00 00 00 00 00 02 00 00 00 00 00 00   ................
0040  1d 00 00 50 00 62 00                              ...P.b.

Frame 96: 72 bytes on wire (576 bits), 72 bytes captured (576 bits)
    Arrival Time: Apr 17, 2013 11:35:07.560968000 MST
    Epoch Time: 1366223707.560968000 seconds
    [Time delta from previous captured frame: 0.000078000 seconds]
    [Time delta from previous displayed frame: 0.000078000 seconds]
    [Time since reference or first frame: 16.690837000 seconds]
    Frame Number: 96
    Frame Length: 72 bytes (576 bits)
    Capture Length: 72 bytes (576 bits)
    [Frame is marked: False]
    [Frame is ignored: False]
    [Protocols in frame: usb]
USB URB

0000  00 23 df 7a 00 88 ff ff 53 03 02 07 02 00 2d 00   .#.z....S.....-.
0010  5b eb 6e 51 00 00 00 00 48 8f 08 00 8d ff ff ff   [.nQ....H.......
0020  08 00 00 00 08 00 00 00 00 00 00 00 00 00 00 00   ................
0030  00 00 00 00 00 00 00 00 00 00 00 00 00 00 00 00   ................
0040  1d 04 04 00 50 00 00 00                           ....P...

Frame 97: 64 bytes on wire (512 bits), 64 bytes captured (512 bits)
    Arrival Time: Apr 17, 2013 11:35:07.562503000 MST
    Epoch Time: 1366223707.562503000 seconds
    [Time delta from previous captured frame: 0.001535000 seconds]
    [Time delta from previous displayed frame: 0.001535000 seconds]
    [Time since reference or first frame: 16.692372000 seconds]
    Frame Number: 97
    Frame Length: 64 bytes (512 bits)
    Capture Length: 64 bytes (512 bits)
    [Frame is marked: False]
    [Frame is ignored: False]
    [Protocols in frame: usb]
USB URB

0000  00 23 df 7a 00 88 ff ff 43 03 02 07 02 00 2d 3e   .#.z....C.....->
0010  5b eb 6e 51 00 00 00 00 47 95 08 00 00 00 00 00   [.nQ....G.......
0020  08 00 00 00 00 00 00 00 00 00 00 00 00 00 00 00   ................
0030  00 00 00 00 00 00 00 00 00 00 00 00 00 00 00 00   ................

Frame 98: 64 bytes on wire (512 bits), 64 bytes captured (512 bits)
    Arrival Time: Apr 17, 2013 11:35:07.562585000 MST
    Epoch Time: 1366223707.562585000 seconds
    [Time delta from previous captured frame: 0.000082000 seconds]
    [Time delta from previous displayed frame: 0.001617000 seconds]
    [Time since reference or first frame: 16.692454000 seconds]
    Frame Number: 98
    Frame Length: 64 bytes (512 bits)
    Capture Length: 64 bytes (512 bits)
    [Frame is marked: False]
    [Frame is ignored: False]
    [Protocols in frame: usb]
USB URB

0000  00 23 df 7a 00 88 ff ff 53 03 82 07 02 00 2d 3c   .#.z....S.....-<
0010  5b eb 6e 51 00 00 00 00 99 95 08 00 8d ff ff ff   [.nQ............
0020  40 00 00 00 00 00 00 00 00 00 00 00 00 00 00 00   @...............
0030  00 00 00 00 00 00 00 00 00 02 00 00 00 00 00 00   ................

Frame 99: 71 bytes on wire (568 bits), 71 bytes captured (568 bits)
    Arrival Time: Apr 17, 2013 11:35:07.563881000 MST
    Epoch Time: 1366223707.563881000 seconds
    [Time delta from previous captured frame: 0.001296000 seconds]
    [Time delta from previous displayed frame: 0.002913000 seconds]
    [Time since reference or first frame: 16.693750000 seconds]
    Frame Number: 99
    Frame Length: 71 bytes (568 bits)
    Capture Length: 71 bytes (568 bits)
    [Frame is marked: False]
    [Frame is ignored: False]
    [Protocols in frame: usb]
USB URB

0000  00 23 df 7a 00 88 ff ff 43 03 82 07 02 00 2d 00   .#.z....C.....-.
0010  5b eb 6e 51 00 00 00 00 a9 9a 08 00 00 00 00 00   [.nQ............
0020  07 00 00 00 07 00 00 00 00 00 00 00 00 00 00 00   ................
0030  00 00 00 00 00 00 00 00 00 02 00 00 00 00 00 00   ................
0040  1d 00 00 50 00 62 00                              ...P.b.

Frame 100: 72 bytes on wire (576 bits), 72 bytes captured (576 bits)
    Arrival Time: Apr 17, 2013 11:35:07.563966000 MST
    Epoch Time: 1366223707.563966000 seconds
    [Time delta from previous captured frame: 0.000085000 seconds]
    [Time delta from previous displayed frame: 0.000085000 seconds]
    [Time since reference or first frame: 16.693835000 seconds]
    Frame Number: 100
    Frame Length: 72 bytes (576 bits)
    Capture Length: 72 bytes (576 bits)
    [Frame is marked: False]
    [Frame is ignored: False]
    [Protocols in frame: usb]
USB URB

0000  00 23 df 7a 00 88 ff ff 53 03 02 07 02 00 2d 00   .#.z....S.....-.
0010  5b eb 6e 51 00 00 00 00 fe 9a 08 00 8d ff ff ff   [.nQ............
0020  08 00 00 00 08 00 00 00 00 00 00 00 00 00 00 00   ................
0030  00 00 00 00 00 00 00 00 00 00 00 00 00 00 00 00   ................
0040  1d 04 04 00 58 08 00 00                           ....X...

Frame 101: 64 bytes on wire (512 bits), 64 bytes captured (512 bits)
    Arrival Time: Apr 17, 2013 11:35:07.565346000 MST
    Epoch Time: 1366223707.565346000 seconds
    [Time delta from previous captured frame: 0.001380000 seconds]
    [Time delta from previous displayed frame: 0.001380000 seconds]
    [Time since reference or first frame: 16.695215000 seconds]
    Frame Number: 101
    Frame Length: 64 bytes (512 bits)
    Capture Length: 64 bytes (512 bits)
    [Frame is marked: False]
    [Frame is ignored: False]
    [Protocols in frame: usb]
USB URB

0000  00 23 df 7a 00 88 ff ff 43 03 02 07 02 00 2d 3e   .#.z....C.....->
0010  5b eb 6e 51 00 00 00 00 62 a0 08 00 00 00 00 00   [.nQ....b.......
0020  08 00 00 00 00 00 00 00 00 00 00 00 00 00 00 00   ................
0030  00 00 00 00 00 00 00 00 00 00 00 00 00 00 00 00   ................

Frame 102: 64 bytes on wire (512 bits), 64 bytes captured (512 bits)
    Arrival Time: Apr 17, 2013 11:35:07.565427000 MST
    Epoch Time: 1366223707.565427000 seconds
    [Time delta from previous captured frame: 0.000081000 seconds]
    [Time delta from previous displayed frame: 0.001461000 seconds]
    [Time since reference or first frame: 16.695296000 seconds]
    Frame Number: 102
    Frame Length: 64 bytes (512 bits)
    Capture Length: 64 bytes (512 bits)
    [Frame is marked: False]
    [Frame is ignored: False]
    [Protocols in frame: usb]
USB URB

0000  00 23 df 7a 00 88 ff ff 53 03 82 07 02 00 2d 3c   .#.z....S.....-<
0010  5b eb 6e 51 00 00 00 00 b3 a0 08 00 8d ff ff ff   [.nQ............
0020  40 00 00 00 00 00 00 00 00 00 00 00 00 00 00 00   @...............
0030  00 00 00 00 00 00 00 00 00 02 00 00 00 00 00 00   ................

Frame 103: 71 bytes on wire (568 bits), 71 bytes captured (568 bits)
    Arrival Time: Apr 17, 2013 11:35:07.566630000 MST
    Epoch Time: 1366223707.566630000 seconds
    [Time delta from previous captured frame: 0.001203000 seconds]
    [Time delta from previous displayed frame: 0.002664000 seconds]
    [Time since reference or first frame: 16.696499000 seconds]
    Frame Number: 103
    Frame Length: 71 bytes (568 bits)
    Capture Length: 71 bytes (568 bits)
    [Frame is marked: False]
    [Frame is ignored: False]
    [Protocols in frame: usb]
USB URB

0000  00 23 df 7a 00 88 ff ff 43 03 82 07 02 00 2d 00   .#.z....C.....-.
0010  5b eb 6e 51 00 00 00 00 66 a5 08 00 00 00 00 00   [.nQ....f.......
0020  07 00 00 00 07 00 00 00 00 00 00 00 00 00 00 00   ................
0030  00 00 00 00 00 00 00 00 00 02 00 00 00 00 00 00   ................
0040  1d 00 00 58 08 df 00                              ...X...

Frame 104: 72 bytes on wire (576 bits), 72 bytes captured (576 bits)
    Arrival Time: Apr 17, 2013 11:35:07.566671000 MST
    Epoch Time: 1366223707.566671000 seconds
    [Time delta from previous captured frame: 0.000041000 seconds]
    [Time delta from previous displayed frame: 0.000041000 seconds]
    [Time since reference or first frame: 16.696540000 seconds]
    Frame Number: 104
    Frame Length: 72 bytes (576 bits)
    Capture Length: 72 bytes (576 bits)
    [Frame is marked: False]
    [Frame is ignored: False]
    [Protocols in frame: usb]
USB URB

0000  00 23 df 7a 00 88 ff ff 53 03 02 07 02 00 2d 00   .#.z....S.....-.
0010  5b eb 6e 51 00 00 00 00 8f a5 08 00 8d ff ff ff   [.nQ............
0020  08 00 00 00 08 00 00 00 00 00 00 00 00 00 00 00   ................
0030  00 00 00 00 00 00 00 00 00 00 00 00 00 00 00 00   ................
0040  1d 04 04 00 58 08 00 00                           ....X...

Frame 105: 64 bytes on wire (512 bits), 64 bytes captured (512 bits)
    Arrival Time: Apr 17, 2013 11:35:07.568319000 MST
    Epoch Time: 1366223707.568319000 seconds
    [Time delta from previous captured frame: 0.001648000 seconds]
    [Time delta from previous displayed frame: 0.001648000 seconds]
    [Time since reference or first frame: 16.698188000 seconds]
    Frame Number: 105
    Frame Length: 64 bytes (512 bits)
    Capture Length: 64 bytes (512 bits)
    [Frame is marked: False]
    [Frame is ignored: False]
    [Protocols in frame: usb]
USB URB

0000  00 23 df 7a 00 88 ff ff 43 03 02 07 02 00 2d 3e   .#.z....C.....->
0010  5b eb 6e 51 00 00 00 00 ff ab 08 00 00 00 00 00   [.nQ............
0020  08 00 00 00 00 00 00 00 00 00 00 00 00 00 00 00   ................
0030  00 00 00 00 00 00 00 00 00 00 00 00 00 00 00 00   ................

Frame 106: 64 bytes on wire (512 bits), 64 bytes captured (512 bits)
    Arrival Time: Apr 17, 2013 11:35:07.568412000 MST
    Epoch Time: 1366223707.568412000 seconds
    [Time delta from previous captured frame: 0.000093000 seconds]
    [Time delta from previous displayed frame: 0.001741000 seconds]
    [Time since reference or first frame: 16.698281000 seconds]
    Frame Number: 106
    Frame Length: 64 bytes (512 bits)
    Capture Length: 64 bytes (512 bits)
    [Frame is marked: False]
    [Frame is ignored: False]
    [Protocols in frame: usb]
USB URB

0000  00 23 df 7a 00 88 ff ff 53 03 82 07 02 00 2d 3c   .#.z....S.....-<
0010  5b eb 6e 51 00 00 00 00 5c ac 08 00 8d ff ff ff   [.nQ....\.......
0020  40 00 00 00 00 00 00 00 00 00 00 00 00 00 00 00   @...............
0030  00 00 00 00 00 00 00 00 00 02 00 00 00 00 00 00   ................

Frame 107: 71 bytes on wire (568 bits), 71 bytes captured (568 bits)
    Arrival Time: Apr 17, 2013 11:35:07.569706000 MST
    Epoch Time: 1366223707.569706000 seconds
    [Time delta from previous captured frame: 0.001294000 seconds]
    [Time delta from previous displayed frame: 0.003035000 seconds]
    [Time since reference or first frame: 16.699575000 seconds]
    Frame Number: 107
    Frame Length: 71 bytes (568 bits)
    Capture Length: 71 bytes (568 bits)
    [Frame is marked: False]
    [Frame is ignored: False]
    [Protocols in frame: usb]
USB URB

0000  00 23 df 7a 00 88 ff ff 43 03 82 07 02 00 2d 00   .#.z....C.....-.
0010  5b eb 6e 51 00 00 00 00 6a b1 08 00 00 00 00 00   [.nQ....j.......
0020  07 00 00 00 07 00 00 00 00 00 00 00 00 00 00 00   ................
0030  00 00 00 00 00 00 00 00 00 02 00 00 00 00 00 00   ................
0040  1d 00 00 58 08 df 00                              ...X...

Frame 108: 72 bytes on wire (576 bits), 72 bytes captured (576 bits)
    Arrival Time: Apr 17, 2013 11:35:07.569748000 MST
    Epoch Time: 1366223707.569748000 seconds
    [Time delta from previous captured frame: 0.000042000 seconds]
    [Time delta from previous displayed frame: 0.000042000 seconds]
    [Time since reference or first frame: 16.699617000 seconds]
    Frame Number: 108
    Frame Length: 72 bytes (576 bits)
    Capture Length: 72 bytes (576 bits)
    [Frame is marked: False]
    [Frame is ignored: False]
    [Protocols in frame: usb]
USB URB

0000  00 23 df 7a 00 88 ff ff 53 03 02 07 02 00 2d 00   .#.z....S.....-.
0010  5b eb 6e 51 00 00 00 00 94 b1 08 00 8d ff ff ff   [.nQ............
0020  08 00 00 00 08 00 00 00 00 00 00 00 00 00 00 00   ................
0030  00 00 00 00 00 00 00 00 00 00 00 00 00 00 00 00   ................
0040  1d 04 04 00 58 08 00 00                           ....X...

Frame 109: 64 bytes on wire (512 bits), 64 bytes captured (512 bits)
    Arrival Time: Apr 17, 2013 11:35:07.571032000 MST
    Epoch Time: 1366223707.571032000 seconds
    [Time delta from previous captured frame: 0.001284000 seconds]
    [Time delta from previous displayed frame: 0.001284000 seconds]
    [Time since reference or first frame: 16.700901000 seconds]
    Frame Number: 109
    Frame Length: 64 bytes (512 bits)
    Capture Length: 64 bytes (512 bits)
    [Frame is marked: False]
    [Frame is ignored: False]
    [Protocols in frame: usb]
USB URB

0000  00 23 df 7a 00 88 ff ff 43 03 02 07 02 00 2d 3e   .#.z....C.....->
0010  5b eb 6e 51 00 00 00 00 98 b6 08 00 00 00 00 00   [.nQ............
0020  08 00 00 00 00 00 00 00 00 00 00 00 00 00 00 00   ................
0030  00 00 00 00 00 00 00 00 00 00 00 00 00 00 00 00   ................

Frame 110: 64 bytes on wire (512 bits), 64 bytes captured (512 bits)
    Arrival Time: Apr 17, 2013 11:35:07.571112000 MST
    Epoch Time: 1366223707.571112000 seconds
    [Time delta from previous captured frame: 0.000080000 seconds]
    [Time delta from previous displayed frame: 0.001364000 seconds]
    [Time since reference or first frame: 16.700981000 seconds]
    Frame Number: 110
    Frame Length: 64 bytes (512 bits)
    Capture Length: 64 bytes (512 bits)
    [Frame is marked: False]
    [Frame is ignored: False]
    [Protocols in frame: usb]
USB URB

0000  00 23 df 7a 00 88 ff ff 53 03 82 07 02 00 2d 3c   .#.z....S.....-<
0010  5b eb 6e 51 00 00 00 00 e8 b6 08 00 8d ff ff ff   [.nQ............
0020  40 00 00 00 00 00 00 00 00 00 00 00 00 00 00 00   @...............
0030  00 00 00 00 00 00 00 00 00 02 00 00 00 00 00 00   ................

Frame 111: 71 bytes on wire (568 bits), 71 bytes captured (568 bits)
    Arrival Time: Apr 17, 2013 11:35:07.572455000 MST
    Epoch Time: 1366223707.572455000 seconds
    [Time delta from previous captured frame: 0.001343000 seconds]
    [Time delta from previous displayed frame: 0.002707000 seconds]
    [Time since reference or first frame: 16.702324000 seconds]
    Frame Number: 111
    Frame Length: 71 bytes (568 bits)
    Capture Length: 71 bytes (568 bits)
    [Frame is marked: False]
    [Frame is ignored: False]
    [Protocols in frame: usb]
USB URB

0000  00 23 df 7a 00 88 ff ff 43 03 82 07 02 00 2d 00   .#.z....C.....-.
0010  5b eb 6e 51 00 00 00 00 27 bc 08 00 00 00 00 00   [.nQ....'.......
0020  07 00 00 00 07 00 00 00 00 00 00 00 00 00 00 00   ................
0030  00 00 00 00 00 00 00 00 00 02 00 00 00 00 00 00   ................
0040  1d 00 00 58 08 df 00                              ...X...

Frame 112: 72 bytes on wire (576 bits), 72 bytes captured (576 bits)
    Arrival Time: Apr 17, 2013 11:35:07.572541000 MST
    Epoch Time: 1366223707.572541000 seconds
    [Time delta from previous captured frame: 0.000086000 seconds]
    [Time delta from previous displayed frame: 0.000086000 seconds]
    [Time since reference or first frame: 16.702410000 seconds]
    Frame Number: 112
    Frame Length: 72 bytes (576 bits)
    Capture Length: 72 bytes (576 bits)
    [Frame is marked: False]
    [Frame is ignored: False]
    [Protocols in frame: usb]
USB URB

0000  00 23 df 7a 00 88 ff ff 53 03 02 07 02 00 2d 00   .#.z....S.....-.
0010  5b eb 6e 51 00 00 00 00 7d bc 08 00 8d ff ff ff   [.nQ....}.......
0020  08 00 00 00 08 00 00 00 00 00 00 00 00 00 00 00   ................
0030  00 00 00 00 00 00 00 00 00 00 00 00 00 00 00 00   ................
0040  1d 04 04 00 50 08 00 00                           ....P...

Frame 113: 64 bytes on wire (512 bits), 64 bytes captured (512 bits)
    Arrival Time: Apr 17, 2013 11:35:07.573981000 MST
    Epoch Time: 1366223707.573981000 seconds
    [Time delta from previous captured frame: 0.001440000 seconds]
    [Time delta from previous displayed frame: 0.001440000 seconds]
    [Time since reference or first frame: 16.703850000 seconds]
    Frame Number: 113
    Frame Length: 64 bytes (512 bits)
    Capture Length: 64 bytes (512 bits)
    [Frame is marked: False]
    [Frame is ignored: False]
